:020000041000EA
:1000000000B5324B212058609868022188439860DF
:10001000D860186158612E4B002199600221596106
:100020000121F02299502B49196001219960352056
:1000300000F044F80222904214D00621196600F024
:1000400034F8196E01211966002018661A6600F04E
:100050002CF8196E196E196E052000F02FF8012189
:100060000842F9D1002199601B49196000215960AB
:100070001A491B48016001219960EB211966A021F2
:10008000196600F012F800219960164914480160C1
:100090000121996001BC002800D000471248134993
:1000A000086003C880F30888084703B5996A0420EC
:1000B0000142FBD001200142F8D103BD02B5186610
:1000C0001866FFF7F2FF186E186E02BD00000240BE
:1000D000000000180000070000035F00212200005C
:1000E000F4000018222000A00001001008ED00E03C
:1000F00000000000000000000000000074B24E7A12
:1001000000200420F7010010C3010010C5010010F9
:10011000C1010010C1010010C1010010C101001097
:10012000C1010010C1010010C1010010C701001081
:10013000C1010010C1010010C9010010CB01001065
:10014000CD010010CD010010CD010010CD01001037
:10015000CD010010CD010010CD010010CD01001027
:10016000CD010010CD010010CD010010CD01001017
:10017000CD010010CD010010CD010010CD01001007
:10018000CD010010CD010010CD010010CD010010F7
:10019000CD010010CD010010CD010010CD010010E7
:1001A000CD010010CD010010CD010010CD010010D7
:1001B000CD010010CD010010CD010010CD010010C7
:1001C00000BE00BE00BE00BE00BE00BEEFF3058054
:1001D000103800BEF2EB887180060610A8060610E3
:1001E0003402001090A31AE700201F49086006C8D7
:1001F00081F3088810471D48006800282FD10DA4FE
:100200000ECC002902D000F012F8F9E71849194A7B
:10021000002000E001C19142FCD1174988471749ED
:1002200088471749884700BEFDE701C901C29A42C5
:10023000FBD37047A8060610C0000020082000204D
:10024000F02506100000042000000420F025061010
:10025000001004200010042000000000704709482E
:1002600001F09AFD0047000008ED00E0000000D01A
:100270002820002078F2002041130110990B001073
:10028000FD1201105756000006005250ABB36053E8
:10029000C8E1051006005250861C0302D8E1051083
:1002A000060052505422A29DE4E105100500525070
:1002B000DE65F468F0250610F8B5C0460448054B25
:1002C00010B5834203D0044B002B00D0984710BDDB
:1002D00008200020082000200000000006480749F0
:1002E000091A8B10C90FC91810B5491003D0044B57
:1002F000002B00D0984710BD0820002008200020C7
:100300000000000010B5074C2378002B09D1FFF73F
:10031000D5FF054B002B02D0044800E000BF0123AD
:10032000237010BDA021002000000000281502103D
:10033000054B10B5002B03D00449054800E000BF71
:10034000FFF7CCFF10BDC04600000000A421002034
:100350002815021010B5074C20788300064AD15C9E
:10036000064A88231B01D1544000032112F092F960
:10037000217010BD61F20020B0110020C82A0020B9
:10038000F0B585B00C0015001E00082220491BF0B6
:10039000DDFF002802D0002005B0F0BD0B276F4420
:1003A0003A0000211B480FF0BDFE3B780393002C60
:1003B00006D003AA184920001BF054FE01280DD0D6
:1003C000039B002B19D0154B019300230093144B72
:1003D000144A3100280012F0F5F8DDE7039B002BEA
:1003E00005D0012200210B480FF084FEE8E700222F
:1003F000002108480FF07EFEE2E7094B019301233C
:100400000093064B074A3100280012F0DBF8C3E7DF
:1004100028150210C82A002034150210AC1502104D
:100420003C1502104015021070B506000C001500B6
:10043000002932D0002821D003688B421ED1002130
:10044000200005F0D1FB00220021200005F002FC75
:100450000021200005F0DAFB0021200005F0C8FB98
:100460000021200005F0E0FB200005F017FF011E31
:100470000AD1300012F0A4FD280070BD084B094AD3
:10048000E321094810F03EFF084812F06DFF2000FC
:1004900005F032FD0D256D42EBE71000EDE7C0469B
:1004A000B0150210641B0210DC1502102C1602108D
:1004B000F0B5DE4657464E464546E0B583B00400EB
:1004C0000E00151E39D0002840D002688A423DD166
:1004D0002989002900D180E01A00684812F044FF01
:1004E00008239846A0442B891A1C7F2B00D97F2211
:1004F00092B200234146280004F0A2FF03224146A5
:100500005F481BF023FF002863D10C239946A144C8
:100510003F2148461BF048FE071E1FD00378002BE2
:100520001BD0202148461BF03FFE7B1C00223A7066
:1005300000285DD002701F0010E0524812F0E4FE67
:10054000002231002000FFF76FFF4AE07A214E4B76
:100550004E4AFF314E4810F0D5FE002788239B46B7
:10056000A344083B5B005A4639004846FFF708FFA2
:10057000C6235B009A46E0503A004946454812F0CF
:10058000F3FE5346E158444812F0EEFE5346E1585C
:10059000FF292FD8002942DD0091C8233F4A80213E
:1005A000404612F00FF8C4235B00E0507F282BD8A0
:1005B000002363608933FF33E25A00234146300051
:1005C00008F09AF9071E3DD1C6235B00E258002AC5
:1005D00042D12989300005F0ABFA280004F016FD5D
:1005E000002003B0F0BCBB46B246A946A046F0BD11
:1005F0001F00B3E72A4812F0B7FE0F225242310023
:100600002000FFF711FFECE70100264812F0ACFED6
:100610000F22524231002000FFF706FFE1E7C82316
:100620005B00E0580CF054FC03001F4A8021404658
:1006300011F0C8FFC4235B00E05041461B4812F094
:1006400093FEB5E701001A4812F08EFE3A00310021
:100650002000FFF7E9FEC4E792B2002359463000BC
:1006600008F04AF9071EB4D00100124812F07CFECF
:100670003A0031002000FFF7D7FEB2E784160210DF
:10068000A01602104C16021060160210801B0210F9
:10069000DC150210A4160210B4160210DC160210AB
:1006A000C01602103C170210581702108C170210C7
:1006B000A0170210C017021070B505000C000B0047
:1006C0000D3300D170BD044812F04EFE220029689F
:1006D0002800FFF7A9FEF5E7E017021070B5040047
:1006E0000D00044812F010FE002229002000FFF740
:1006F0009BFE70BDF817021070B506000D001400C7
:1007000011000D4812F030FE73689C46644474601A
:10071000C4235B00F358C6225200B2589B189C4277
:1007200001DA002070BD054812F0EEFD002229001C
:100730003000FFF779FEF5E70C18021020180210C0
:1007400010B50C00CB68002B08D0074812F0DCFD78
:100750000CF0CEFCE36801221A7110BD034B044A71
:100760000449054810F0CEFD401802102C18021064
:100770004C1B021071020000DC15021010B5041EA3
:100780000CD0002012F004FE642801D0442804D1CB
:10079000E06803685B6A0449984710BD034B044A4C
:1007A0000449054810F0AEFDBC110020501802109D
:1007B000381B02108D020000DC15021070B5060017
:1007C0000C00151E26D1002924D0184812F09CFDDB
:1007D000CA214900012012F0E1FB011E20D0046073
:1007E0000836C8235B00C650200005F0FDF910490B
:1007F000200005F00BFA0F49200005F0F9F90A2254
:100800000D49200005F026FA0C49200005F00CFAED
:10081000280070BD0A4812F077FD06204042F8E734
:10082000084812F071FD01204042F2E76C180210F6
:10083000F9060010B1040010DD060010B906001022
:10084000581802108018021010B5042001F0AEFCF8
:100850000321042001F0D6FB00220121042001F035
:10086000E9FB052001F0A2FC0321052001F0CAFBF1
:1008700000220121052001F0DDFB054C0549200087
:1008800010F000FC044A1721200010F037FB10BDC7
:10089000A0120020A0860100FD09001070B505001F
:1008A0000E0050211A4812F05FFD2E2005F052FC78
:1008B000041E19D05022174905F03CF8002818D121
:1008C0000121200005F002F92860002817D0290036
:1008D00005F08AF91049286805F0B4F931000F488D
:1008E00012F042FD012070BD0D4812F00DFD0020F8
:1008F000F9E750210B4812F037FD0020F3E70A48D2
:1009000012F002FD200005F0C9FC0020EBE7C04614
:10091000A418021010560210BD070010081902108A
:10092000C0180210D8180210F4180210F0B583B0E5
:10093000060001911700194B1D68681C322111F047
:10094000A9FE174B1B68994223D0AC006419E40040
:10095000144BE4182022310020001BF031FD380038
:1009600012F00AFB2062002815D03A00019912F01B
:1009700039FBAB005B19DB000A4AD3185F62074CF6
:100980002368581C322111F085FE2160012003B03C
:10099000F0BD0020FBE70020F9E7C04618D8002092
:1009A00014D8002070EA002030B587B015001C0074
:1009B0000E4A0F4BD35C022B15D00023E35C1B09BE
:1009C0000C4A142101A811F0FDFD2A00210001A804
:1009D000FFF7ACFF084B1B68002B02D1064B01222E
:1009E0001A6007B030BD6388E8E7C046C82A002017
:1009F0009E090000441902104C27002010B5002960
:100A000002D0022931D010BD234A0223FF33D35C28
:100A1000002B13D103681A6F120709D519691E4BF1
:100A20008022520099540222FF3201219954EAE7B0
:100A30001A4B1B4A1F211B4810F064FC164A8023E6
:100A40005B00D25C0368196F090708D51969124B5E
:100A50009954802149005A5C01325A54D3E70F4B14
:100A60000F4A1F210F4810F04DFC0B4980235B00FB
:100A7000CA5C0D48FFF75AFF0C4B1B68002B02D1D4
:100A80000A4B01221A60044B00220221FF315A5402
:100A900001395A54B7E7C046B4290020541902104E
:100AA000281B02107C190210D41902104C270020B8
:100AB00070B5184CA5440E0015003222010068469E
:100AC00017F098FE00280BD10024AC4210D2325D02
:100AD0001149684618F04CFB002806DB0134F4E7A6
:100AE00001000E4812F040FC0BE00D4812F00CFC27
:100AF0000C49684618F03CFB684618F022FB011EC2
:100B000003D198239B009D4470BD074812F02CFC34
:100B1000F7E7C046A0FDFFFF081A0210E419021013
:100B2000101A021024F20510301A021070B5154B7D
:100B30001B68002B24D1134B01221A6015E0AC0076
:100B40006019C000104E8019426A016AFFF7B0FFB9
:100B50006419E4003419206A12F032FA0B4C23684D
:100B6000581C322111F096FD2160084B1D68084B7E
:100B70001B689D42E3D10023024A1360054A1360BB
:100B800070BDC04640F2002070EA002014D800205A
:100B900018D800204C27002070B53E4CA54412F018
:100BA000EFFBFFF751FE1021012012F0F7F9041EB0
:100BB00035D00CF0F1FA002835D10CF0BFFAE06026
:100BC000354DEC600CF0BAFA0368DB6929009847F0
:100BD0002100324812F01CFC314E324A32493000BA
:100BE0000CF030FA314BA360314B199325000835D6
:100BF00019AA290006A800F061FA290004A800F04B
:100C00006FFB31002000FFF749FE002813D019F0D8
:100C1000FDFE002813D1274812F076FBFEE7264898
:100C200012F072FB02E0254812F06EFB0120B423A3
:100C30009B009D4470BD224812F066FBF6E701223E
:100C400020491AA817F0A6FD011E03D01E4812F075
:100C50008BFBFEE71D4812F057FB002525711C4A4F
:100C600001211C480FF084FA02F0E8F91A4B0293B4
:100C700001951A4B00931A4A01235B4202F026FBAE
:100C8000184B1B68002BFBD0FFF750FF0A2002F027
:100C900013FCF5E730FDFFFFBC1100207D070010BD
:100CA000941A021004004000881A0210C0A804011F
:100CB000FFFFFF00B81A0210541A0210701A021037
:100CC000A01A0210E01A0210E41A0210101B0210FF
:100CD000A9090010C82A0020282000205503001070
:100CE000C0F2FCFF4C27002030B50400002303E0D5
:100CF000A218527802329B189A225200934209DAC3
:100D00001A00E018E55CFF2D02D08D42F0D102E020
:100D1000002000E0002030BD0368197001215970E7
:100D2000D91C9A70016070470368197004215970CA
:100D3000110E9970110CD970110A1971991D5A71FF
:100D40000160704770B50500140002681170961CB0
:100D5000547022001900300012F044F934192C604C
:100D600070BD0000F0B5D6464F464646C0B584B0CB
:100D70000700894692461C000CAB40CB1B88984666
:100D800080235B029C4200D31F4CA022A1B29200A0
:100D9000362004F079F9051E33D022005146406810
:100DA00012F020F933063202FF2109040A401343EE
:100DB000320AFF2109020A401343320E1343039300
:100DC0004B46002B13D038680093434603AA2900F2
:100DD00009F04EF80600280004F018F9002E0ED194
:100DE000200004B0E0BCBA46B146A846F0BD386861
:100DF000434603AA290009F07DF80600EBE730001E
:100E0000EFE70C204042ECE7FFFF000070B5040064
:100E10000E00150009F018F92060002805D03200F6
:100E2000290009F0E3F8002070BD0C204042FBE7E8
:100E300010B50A000068024908F0FEFE10BDC04669
:100E400010560210F0B5DE4657464E464546E0B510
:100E5000904CA544060014001289F22A0BD82000F9
:100E600004F0D4F893239B009D44F0BCBB46B246EB
:100E7000A946A046F0BD89220023920009A92000BE
:100E800004F0DEFAF228EAD909AB02221A70023223
:100E900031000DA812F0A6F844AB089345A80890BD
:100EA0003521FFF721FF0028D9D08378012B00D10D
:100EB000A4E0032BD3D1322145A8FFF715FF051E6F
:100EC000CDD00230032231001AF092FE0028C6D1A4
:100ED0006F793D00103DEDB2072DC0D86B1CDB00D3
:100EE0009846B044062210A940461AF081FE002818
:100EF0000BD00622684940461AF07AFE0028AED18F
:100F0000062210A9404612F06DF802F089FB002974
:100F100000DAB4E000D1B8E0FA229200002311F028
:100F2000F7FB5E4B9C466044000C0135ED007519E3
:100F3000E88009ADEF740522352108A8FFF7ECFE23
:100F4000297F6A7FAB7F9B46E87F2027EF5D2123C7
:100F5000EB5C9C462B7C98466B7C9946AB7CED7C8D
:100F6000069505934B4604934346039363460293C9
:100F7000019700905B464A4812F0F6F94FE0494B62
:100F8000494A3F21494810F0BDF9FA21890011F082
:100F900081FB4B46181A2AD40137072F33DC7D1CFE
:100FA000ED007519062210A928001AF021FE00286C
:100FB00028D04346082BEFD10622374928001AF0E3
:100FC00017FE002800D1B8467B1CDB00F318DB8835
:100FD0001B04374A1A43914602F022FB0029CEDB5C
:100FE000D3D0FA229200002311F092FBD1E706221F
:100FF0000021280011F0F0FFB846CDE700270823B4
:101000009846CAE7B8464346082B00D127E7103375
:1010100009AAD3740222352108A8FFF77DFE330008
:101020000422362108A8FFF78DFE331D042201217A
:1010300008A8FFF787FE33000422032108A8FFF762
:1010400081FE33000422062108A8FFF77BFE194A1F
:10105000332108A8FFF768FE089B5A1C0892FF225C
:101060001A70154B596809AA089B9B1A3000483022
:1010700044250195453D0095FFF774FEEFE6094BC9
:10108000094A3F21094810F03DF9FA21890011F081
:1010900001FB46E7B4FDFFFF441C0210005C26057F
:1010A000F81B0210901B02104C1C0210AC1B02100B
:1010B000FFFF000080510100D03D002070B504000A
:1010C0000B6803601368436008304022002111F070
:1010D00083FF25004835064A21002800FFF796FEC9
:1010E000002800D070BD43212800FFF7A1FEF9E7DA
:1010F000450E0010F8B5CE46474680B50700884635
:1011000014001E0008AB1B88994680235B029A429C
:1011100000D3154CA022A1B29200362003F0B4FFF8
:10112000051E15D022004146406811F05BFF38686B
:101130004B463200290008F0DDFE0600280003F0CF
:1011400065FF002E0AD12000C0BCB946B046F8BDEC
:10115000064812F0D9F80C246442F4E73400310058
:10116000034812F001F9EEE7FFFF0000641C0210D3
:10117000901C0210F0B5D64600B5D0B00290160013
:10118000039356AB1D8896220023520005A9300018
:1011900004F056F904000B2806D8300003F036FF9F
:1011A00050B080BCBA46F0BD05AF788802F0A0FE12
:1011B0008246B88802F09CFE5346DB0B9BB2002BA4
:1011C000EBD15346DB0A1B07E7D10028E5D03819DD
:1011D00008AF3AE0013708ABFB1AFF2BDDDCC02378
:1011E0003B71B43B7B710024BC710B3BFB713C72C7
:1011F0007B72BC72FC723C733B337B73BC733800F4
:101200001030383BFB73029B191D042211F0EAFEDB
:1012100014229246BA44114802F06AFE05AF788063
:10122000012002F065FEB880012002F061FEF88026
:101230003C817C8139005246D21B0095039B029869
:10124000FFF758FFA9E701317F188742C3D23978E9
:101250000029BFD03F29F6DD9FE7C046808400000B
:1012600070B504000E00150008F0EEFE20600028A6
:1012700005D03200290008F0B9FE002070BD0C2016
:101280004042FBE730B583B014000B060A02FF258D
:101290002D042A4013430A0AFF252D022A40134336
:1012A000090E194301910068220001A908F0C4FC4D
:1012B000002801D103B030BD02002100044812F023
:1012C00053F8044B044A3721044810F01BF8C04679
:1012D000B01C0210D41C0210301D0210DC1C0210C5
:1012E00070B504000D00084A0100FFF7B9FF00289F
:1012F00000D070BD352200212000FFF7C3FF002879
:10130000F7D12B686360F4E77511001010B5064B38
:101310008B4202D108F0C2FA10BD044B044A1821D6
:1013200004480FF0EFFFC046E0110020401D0210FE
:10133000F01D0210601D0210F8B50400204B994208
:1013400012D101230B7208F0D3FA0500431C11D10E
:101350001C4B186859681C4B9860D96023685B69FE
:10136000194920009847F8BD184B194A1D21194802
:101370000FF0C8FF02F054F906000F1E10DBFA222E
:10138000920000232800002111F056FD36184F412D
:10139000002F0BDB002F0DDB0B4B9E60DF60DDE7CA
:1013A0000D4B0E4A3F210E480FF0ACFF012676424E
:1013B0000C4FEFE7084B094A3F2109480FF0A2FF05
:1013C000CC110020002C0210E0110020A81D0210FA
:1013D000081E0210601D0210901B0210D81D021082
:1013E000AC1B0210FFFFFF7F10B50400094B1B78F8
:1013F000002B08D0084901230B722368DB69200009
:101400009847012010BD02F061FD024B01221A70C5
:10141000F0E7C04666F20020CC11002010B50400B1
:1014200003689B690349984723681B6A02492000A7
:10143000984710BDE0110020CC110020002070471B
:101440007047000010B502F0EBF8002906DB0BD066
:10145000FA229200002311F05BF910BD054B064AF9
:101460003F2106480FF04EFFFA21890011F012F9D2
:10147000F3E7C046901B0210D81D0210AC1B0210EF
:10148000083000E018000368002B03D08B42F9D12C
:10149000002002E001600B6001207047083000E08E
:1014A00018000368002B05D08B42F9D10B6803604C
:1014B000012000E000207047043000E018000368BD
:1014C000002B03D08B42F9D1002002E001600B60B9
:1014D00001207047043000E018000368002B05D09D
:1014E0008B42F9D10B680360012000E000207047B7
:1014F000F8B506008068002833D002F091F8002982
:1015000006DB04000D0008239C46B44400220CE0D6
:10151000154B164A3F2116480FF0F4FE154B164A9C
:10152000422116480FF0EEFE9C4663461B68002BD6
:1015300012D0200029009E68DF68801BB941002975
:10154000F2DB34003D000E490A6849687240794078
:101550000A43E3D06246E7E7002A03D01068036835
:101560001360F8BD1000FCE7901B02109C1E0210D7
:10157000AC1B02101C1E0210B41E0210401E0210F2
:10158000002C0210F0B583B0104B5C681B68009310
:101590000194836804E0DC689B68009301940B006D
:1015A000002B0CD01968009C019D9E68DF68A41B6D
:1015B000BD41002DEFDCF2D1002CECD1EFE7009B18
:1015C000019C0361446103B0F0BDC046002C0210D1
:1015D00070B506000D0002E04B682800984728000F
:1015E000FFF786FF011EF7D16C6800E02468002C2D
:1015F00009D0237A002BF9D0002323722100280080
:1016000063689847F2E72800FFF7BCFF2B696C6915
:1016100033607460300070BD034B1B6802201840BB
:10162000431E9841C0B2704700C0064010B5104A32
:10163000104B12184B419900900F0843990F5040DE
:1016400059400D4A0D4B11F0F7FB03004A01C00E43
:101650001043CA0E58405140094A0A4B11F0ECFBA6
:1016600003004A00C00F1043CA0F5840514010BD3C
:10167000157C4A7FB979379EB9E5E41C6D4758BFA0
:10168000EB113113BB49D094F0B5C64600B584B018
:1016900002000B0013498C461BE0614601C9009013
:1016A0008C4600210191910E9F010F4396010098F5
:1016B00001998019794102900391110C1D040D4389
:1016C00014040298039900196941801A9941020093
:1016D0000B0005498C45E0D91000190004B080BC0E
:1016E000B846F0BD001C0420FF1F0420F0B5CE4614
:1016F000474680B583B080460368446800930194F0
:1017000003008068D96801E001F08AFF009C019D18
:1017100023002B4302D103000B43F5D0009C019D15
:10172000A60FAB003343A2002E002500AD185E418A
:101730006B0E9946F3019C464B46624613431F00CD
:10174000730EEA0113431E005B0F9C46FB006446C8
:101750002343F20092197B41009C019D6040694047
:10176000260A2F063E432D0A009C24062C434440A3
:1017700035004D40070C0E043E4307047C40754085
:101780004646346075604C01C50E2C434001C90EBD
:101790000843B460F0601000190003B0C0BCB94643
:1017A000B046F0BDF0B5DE4657464E464546E0B57C
:1017B00083B00190574B9B69DB0410D5564BDA6B15
:1017C000E0231340402B0AD0EFF305839846019B9A
:1017D000002B0AD000239946002400258AE04F4BB5
:1017E0004F4A81214F480FF08DFD4F4B4C4A8621C7
:1017F0004C480FF087FD4D4B1868596801F0B2FD59
:10180000EFF3108672B64A4B1B68002BFBD0BFF378
:101810005F8F464B19685A688A4516D0BFF35F8FB1
:10182000434B00221A6086F310885B46002B5ED182
:101830003E4B1A6892465F684346002BDBD03B4B19
:101840001868596801F0F8FEDAE7BA42E6D12000DC
:101850002900001969412F4BDA6901231340034322
:101860001C000D0001F0DCFE02000B1E23DB0A2031
:10187000002112184B41002B23DB002B25DB2B49C9
:101880000A604B6001994B1E4B452DD1294A2023FC
:101890005B42CB181FD4116899400B001268019964
:1018A0008A4022432B4314001D00224B1C605D60C4
:1018B00001239B46B2E7204B204A3F2120480FF0EE
:1018C00021FD012252421F4BD7E71B4B1B4A3F21F0
:1018D0001B480FF017FD202301981B1A1168D940EF
:1018E000536883400B43D9E701239B4696E70123C6
:1018F0009C46E144019B994502D200239B4697E711
:101900002000290003B0F0BCBB46B246A946A04661
:10191000F0BDC0460000064000800040E41E0210FA
:1019200014200210AC1F0210EC4602109821002077
:10193000300100D020200020901B0210FC1F02105C
:10194000AC1B0210FFFFFF7F10B588B03B4C206836
:101950006168FFF799FE20606160FFF767FE049BF6
:101960005840059B019359400490059102A800F04E
:1019700011F902980399FFF759FE069B019358400D
:10198000079B01935940069007914020FFF70AFFFB
:10199000FFF74CFE049B5840059B0193594004906F
:1019A000059101F03DFEFFF741FE069B0193584073
:1019B000079B0193594006900791EFF3108472B68C
:1019C0001F4B1B68002BFBD0BFF35F8F1D4B1B7899
:1019D000002B24D1032B09D85A1CD2001A498C465B
:1019E000624452681F2A03D00133F3E701235B42AC
:1019F0005A1C1DD0DBB2154A13700133DB00124AAA
:101A00009446634405225A6004A8FFF76FFE102233
:101A100004A90F4811F0E6FA0A4B01221A70BFF32D
:101A20005F8F074B00221A6084F3108808B010BD46
:101A3000084B094AE92109480FF064FC08200020FE
:101A4000300100D072F200200000034060F200205C
:101A500010200020F01F021034200210AC1F0210D2
:101A600070B586B03E4B1B78002B00D16EE0102283
:101A70003C4902A811F0B6FA3B4B1C78E4B201F0E5
:101A8000CFFDFFF7D3FD029B5840039B01935940C4
:101A9000029003910120FFF785FEFFF7C7FD049B2D
:101AA00001935840059B01935940049005912F4B99
:101AB0001A78531CDB002E4958582E4B984248D0B8
:101AC0000021FFF7B3FD029B5840039B019359404F
:101AD00002900391EFF3108672B6274B1B68002B20
:101AE000FBD0BFF35F8F204B1B78DBB2A34213D038
:101AF0001C4B02991A685140039A0192586842405F
:101B0000029103929A68DB68049901914A40059911
:101B100001914B400492059302A8FFF7E7FD0500F1
:101B20000C00102202A90F4811F05CFA0E4A13783B
:101B30000133DBB21370BFF35F8F0F4B00221A60CB
:101B400086F310882800210006B070BDFFF7FCFE68
:101B50008DE70132D2000B000021D150B0E7C04622
:101B600072F200201020002062F2002060F20020BB
:101B700000000340FFFFFF00300100D010B5FFF769
:101B80006FFF10BD10B5024800F03CF810BDC04614
:101B9000ECE7002010B50822014911F023FA10BD2E
:101BA000ECE7002010B5002901D000230AE0114B1A
:101BB000114A1F3111480FF0A5FB00240DE0373208
:101BC000C25401334A1E9A420FD90F2B0DD85A081E
:101BD0000B4CA25CDC07F0D40424224114000F2239
:101BE0002240092AEBDC3032EAE7C01800230370F8
:101BF00010BDC04644200210982002104C20021054
:101C0000ECE7002070B588B0040004AD002604960F
:101C10000922002105A811F0DFF900960922002110
:101C200001A811F0D9F94B232B700D226946280029
:101C30001FF0CAFB002304E05A1D69468A5CE25487
:101C40000133072BF8DD08B070BD0000EFF3108002
:101C500072B6034B1B68002BFBD0BFF35F8F70473E
:101C60002C0100D0BFF35F8F024B00221A6080F37B
:101C7000108870472C0100D0F8B506000C00150044
:101C8000FFF7E4FFE308F718F15C07222240012385
:101C900093400B4205D1DBB20B433B70FFF7E2FFF1
:101CA000F8BD210028000FF0C7FBF0B583B0060097
:101CB000019114001F00FFF7C9FF00E00134BC428E
:101CC0000CD8E308F518F35C0721214001228A4073
:101CD0001A42F3D1D2B21A432A7001E001246442BD
:101CE000FFF7C0FF002C02DB200003B0F0BD019B1A
:101CF000002BF9D008980FF09FFB000070B505008D
:101D00000C00FFF7A3FFE308EE18EA5C07210C4084
:101D10000123A340134204D09A433270FFF7A2FF7D
:101D200070BD034B034A2C3103480FF0EBFAC04659
:101D3000282202109022021048220210002307E0FD
:101D4000054A9A189200BFF35F8F0021116001339A
:101D50001F2BF5D97047C04640000034054A107863
:101D6000431CDBB21370172B02D9130010221A7018
:101D70007047C046F811002000B583B00100044B45
:101D800000931F2318220348FFF78FFF03B000BD05
:101D9000A02202108829002010B5010018231B88FA
:101DA00014221088984710BD10B5010018231B8815
:101DB00016221088984710BDF0B5C64600B507003A
:101DC0000E0000250123984600E00135B5420AD2F5
:101DD000AC003C192068FFF7DFFF20600028F4D139
:101DE00000239846F1E7404680BCB846F0BD0000AD
:101DF000F8B5DE4657464E464546E0B505000F00AD
:101E000092460A9A934250D31A0E91461E020A9A9B
:101E100000233000494610F07BFC80466C006419BA
:101E2000A400304B9C4664446368834200D26060E7
:101E30002B1FDBB29B46012B3DD9C0239B012343C3
:101E4000802212011A60AB00274A9958002907D056
:101E5000506910F01FFC431C5800C0180338FDD215
:101E600053465A0123685A40E0231A4080235B01FD
:101E700023431A605A46012A28D980239B01234311
:101E8000802212011A6043466360424600233000FC
:101E9000494610F03DFCAD00134B58510120F0BCF9
:101EA000BB46B246A946A046F8BD104B104A3321A6
:101EB00010480FF027FA012FBFD1C0239B01234305
:101EC00003221A60A368DB07FCD5C9E721687940C3
:101ED00003220A401A60A2680123BB401342FAD0D1
:101EE000CBE7C046008000408C290020BC220210B5
:101EF0001C230210D022021030B583B00C2001F058
:101F00005FFFFFF789FB00280DD0002304E0990054
:101F10002D4A2E4888500133092BF8D92A4B2C4AD8
:101F20005A6203B030BD2B4B00229A6701F0BAFF12
:101F3000294B01221A60274B5B6C012BFBD1274BED
:101F400003221A60234B9B6B012BFBD101330093BF
:101F50000433234A0121234801F0A2FE0523009304
:101F6000214A0121214801F09BFE214B00930022D0
:101F700002210420FFF73CFF1E4D00952B0000229C
:101F800001210520FFF734FF104C009423000022AC
:101F900000210720FFF72CFF0094230000220021DE
:101FA0000820FFF725FF0A4B0093230000220021A1
:101FB0000920FFF71DFF00952B00002200210620BD
:101FC000FFF716FFADE7C0468C290020006CDC024D
:101FD0001BB70000008000403CB0004030B0004023
:101FE000002F685900800240008C864700C00240E4
:101FF000001BB700405973078000014BC058704761
:102000008C29002010B58300084A944663441C685C
:1020100040226240C02414408022520113431C60BD
:10202000C000034B9C466044416010BD04C00140A9
:102030000040014080000B4B9C46604400290DD0BD
:102040000823002A0CD004221343026853400C22B8
:102050001340802252011043036070470023F0E7D1
:102060000022F1E704C00140002909D08000094B9B
:102070009C46604480239B01184302230360704701
:102080008000044B9C466044C0239B0118430223FC
:102090000360F4E704C001408000064B9C466044A6
:1020A0000901036859403023194080235B0118431C
:1020B0000160704704C0014070B5D0231B061B6847
:1020C0009D00094C2C59204207D19B002043064C0F
:1020D00018510D2000F042F970BD044B044ACC2188
:1020E00004480FF00FF9C046D8E700202C23021057
:1020F000F02302105823021010B50400D0231B0651
:102100001B689B000A4A9B5818420BD00D2000F018
:102110003FFAD0231B061B6805499B005A58A2436F
:102120005A5010BD034B044AD62104480FF0EAF878
:10213000D8E70020A0230210CC230210582302105D
:10214000072303409B00C00899403C308000014BAE
:10215000C150704700400140F8B507000C00160060
:102160001D00FFF7EDFFFB089B00ED18072038402E
:1021700080008440002E04D080239B011D432C60EE
:10218000F8BDC0239B011D432C60F9E710B5D02397
:102190001B061B68002B03D0024BFFF7DDFF10BDB1
:1021A000014BFAE7304101400041014010B50123E5
:1021B0008340D0221206936293610521FFF722FF2C
:1021C00010BD0000074B9B68103080001950BFF312
:1021D0005F8FBFF35F8F044B0021196082F310887B
:1021E0007047C04600ED00E0240100D01F23181AFC
:1021F0007047000010B5091A081F0A4B9C4661443D
:10220000094A914208D8C30706D440104005400D42
:10221000064B184380B210BD054B064AA321064861
:102220000FF070F8FC070000FE0F000000E0FFFF59
:1022300024240210902602105424021010B5091A0A
:1022400004394C08090B08D14905490D064A1143C8
:102250000180064B2343438010BD054B054AAB214B
:1022600005480FF04FF8C04600F0FFFF00F8FFFFF1
:102270009824021064260210542402100123834083
:10228000034A10681840431E9841C0B27047C046C8
:1022900000E100E0002904D0034B1860034B1860F4
:1022A0007047034B1860FBE780E200E000E100E0CC
:1022B00080E100E010B5012383401800FFF7EAFF3A
:1022C00010BD000001238340014A13607047C046DF
:1022D00000E200E0024B9B6810308000C05870475D
:1022E00000ED00E010B5FFF7F5FF002805D0054B25
:1022F000C01A2F2803D8012010BD0020FCE70020C1
:10230000FAE7C046FC11002070B504000D00EFF3A1
:10231000108672B60C4B1B68002BFBD0BFF35F8F8F
:102320002000FFF7D7FF094B984201D0A84205D102
:10233000320029002000FFF745FF70BD044B054A1D
:10234000862105480EF0DEFF240100D0CD010010EB
:10235000A8240210C426021054240210F0B5DE4650
:1023600057464E464546E0B589B081460191150075
:10237000EFF3108A72B6744B1B68002BFBD0BFF3CF
:102380005F8F724B0027DF57002F40DB7C00E41982
:10239000A4006F4824180622A2566C4B1A706D4B8D
:1023A0009A684B4610339B00D35898461E001B1A60
:1023B0002F2B38D9684B98452FD105AE674B33800A
:1023C0007B009B46D8198000614B98464044023000
:1023D0006349FFF70FFF7080624BB380FF23B37137
:1023E000F571019B07935F44BF0047440ECE0EC7B3
:1023F00001231C43A046524641464846FFF7E2FEF1
:1024000009B0F0BCBB46B246A946A046F0BD564B4B
:10241000564AD72156480EF075FF564B534ADE21D7
:1024200053480EF06FFFC04340440C2110F032F9C6
:10243000002912D101239E43B34633000026DA79E6
:10244000AA4211D90621595600290CDB4A0052181C
:1024500092001E003E4B9B18F1E7474B434AEA218E
:1024600043480EF04FFF1E00002E3AD005AB434A02
:102470001A80813A5A800623F3560293002B17DA0A
:102480003F4805AB9B469880029A9A71DD71019A8C
:102490000792301D2100FFF7ADFEB080B7717B00C1
:1024A000DB199B002A4FFF185B4607CB07C7A2E743
:1024B0007800C0198000264BC0180430321DB38844
:1024C000D90A1C2907D15B05591502314900511859
:1024D000FFF790FED5E72B4B2B4AB12124480EF095
:1024E00011FF05AE1D4B33807B000293D81980008D
:1024F000174A9046020042440392901C1849FFF785
:1025000079FE7080039A101D5946FFF773FEB08064
:102510001E4B5A464146521A524153431B0DB3714A
:10252000F571019A0792029B9C466744BF0047449D
:102530000ECE0EC7114B5A461380813B53800123A8
:102540001C43A04657E7C046240100D06BF2002090
:10255000FC11002000ED00E0CD01001000A1FFFF04
:102560002C12002001BDFFFFE0240210AC26021057
:1025700054240210082502103025021001480000E2
:1025800001BD0000A42502109C260210AAAA00008A
:10259000F0B5CE46474680B583B006000D00EFF398
:1025A000108872B6564B1B68002BFBD0BFF35F8FB1
:1025B000544B9A6834001034A300D758524B9F42B2
:1025C00007D0AF4200D198E00197504BFB1A2F2B58
:1025D00009D9424639003000FFF7F4FD03B0C0BC12
:1025E000B946B046F0BD3000FFF748FE81460021F5
:1025F0003000FFF75FFEBFF35F8FEFF30581002927
:1026000001D08C4211D10123019C9C430022A3687C
:10261000AB4212D00622A256002A0DDB53009B18B3
:102620009B002200394CE418F1E73621384B394A37
:10263000FF3139480EF066FE2200AB4256D1062526
:102640006557002D38DB6B005B199A002F4B9B18E8
:102650009A68A260DA79E27106229A56A2719B7991
:102660005BB2002B0FDA2D48A0806B005B199B003A
:10267000264AD3182A4A11789971157049463000B4
:10268000FFF718FEA5E7201D6B005B199B001F4A92
:102690009B181A1D9B88D90A1C2907D15B055B155D
:1026A000023359005118FFF7A5FDDDE71D4B1E4A07
:1026B000B12119480EF026FE002912D1002A0ED0B1
:1026C000FF239371194B9380154A1378A371184B0C
:1026D0000E49641A644163431B0D1370CEE70A4F21
:1026E000F2E7201D1349FFF7A9FDC7E76A21124B46
:1026F000084AFF3108480EF005FE034F69E7C0465F
:10270000240100D000ED00E0CD010010FC110020FC
:10271000BC2502107C2602105424021001BD0000CA
:102720006BF20020A42502109C26021001BDFFFFC1
:10273000AAAA000036120020D41C021010B50323F0
:1027400004009C43064A9446644422681840C00032
:10275000FC3383409A43130081400B43236010BD38
:1027600000E400E070B5012101432E4BCB1A2F2B62
:1027700028D8EFF30583002B2BD0EFF3108C72B623
:10278000294A1268002AFBD0BFF35F8F274A040052
:10279000244D641B64416243120D54B2244A926872
:1027A0009B00D2588A421BD00022032A32D8530001
:1027B0009B189B001B49CB189B795BB2A3421FD08F
:1027C0000132F2E7C7211B4B1B4A49001B480EF0A0
:1027D00099FD92211A4B184AFF3118480EF092FDCC
:1027E000134A92681749D150174B1A7882711C709E
:1027F000BFF35F8F0C4B00221A608CF3108870BD02
:102800000D005300991889006918FF268E710F4A30
:102810008A80E9E7D1210E4B074A490007480EF0AC
:1028200071FDC046FC110020240100D0AAAA0000BE
:1028300000ED00E0F025021048260210542402109A
:1028400018260210CD0100106BF2002001BDFFFF21
:10285000242602100022044B02E0044902C3013284
:10286000072AFAD97047C04600E400E080808080E3
:1028700010B5FFF7BBFC01000148FFF73FFA10BDA0
:1028800077F2002000B583B00100064B00930523CA
:1028900000220548FFF709FA002801DB1F23181A58
:1028A00003B000BD2C26021077F2002070B50400A2
:1028B0000E001500FFF752FA0100200000F006F8A4
:1028C000A680E580BFF35F8F70BD0000024B9C4681
:1028D00061448900016070474000003410B5040075
:1028E000FFF73CFA01002000FFF7F0FFFF23237100
:1028F000BFF35F8F10BD10B50400FFF72FFA010082
:102900002000FFF7E3FFFF23237100236371BFF370
:102910005F8F10BD034B9C46614489000160BFF38B
:102920005F8F70474000003410B504000120FFF7AE
:1029300023FA01002000FFF7EDFF10BD10B50C00D9
:10294000CB68834207D108000B699847002809D05B
:102950002068616810BD5221054B064AFF310648C8
:102960000EF0D0FC0023E36000200021F2E7C04617
:1029700094280210082B0210A828021070B5050038
:102980000C00080000F04CFF0949200000F08CFE0C
:10299000FFF7E4F9074B9C466044800068602C75A3
:1029A000D0231B061B786B75A400034BE55070BD4C
:1029B000C12C00104000003404D800200A4B1A68D3
:1029C000EFF3108172B61368002BFCD0BFF35F8F5A
:1029D000054B1B68BFF35F8F00221A6081F31088DC
:1029E00040BF002000217047FCE9002010B50029FD
:1029F00022D003681B7B99421ED8174B9C4661442A
:102A0000090183689C4661440C684968002A19D012
:102A100003681B7B9A4215D883680F48844662443A
:102A200012019A1810685368020001208B4201D8E5
:102A30000ED00020C0B210BD084B094A3C21094805
:102A40000EF060FC054B064A3C2106480EF05AFC8D
:102A5000A242EFD8EDE7C046FFFFFF0FE8280210C3
:102A6000702B0210A828021010B500291ED0037B7D
:102A700099421BD84B005B18033B0468A44663448F
:102A8000002919D0002A1DD0914221D0002A25D03A
:102A9000047BA24222D80468500080180338201812
:102AA0008170197800291FD11A7010BD104B114A7E
:102AB000682111480EF026FC104B114A6F310E4868
:102AC0000EF020FC0F4B0E4A70210B480EF01AFC42
:102AD0000D4B0B4A712108480EF014FC044B054ABB
:102AE000682105480EF00EFC41701A70DDE7C04603
:102AF0000C290210DC2B0210282902107C2902105C
:102B0000B82B0210882902109429021070B5060013
:102B10000D001400002914D0002A14D080687368B6
:102B20009847002806D0220029003000FFF79CFFBC
:102B3000280007E02A0021003000FFF795FF200061
:102B400000E0100070BD0800FCE70000F0B583B0A5
:102B50000500009201930AAB1C780BAB1F78002C88
:102B600026D003685A7B944207D10123002B19D148
:102B7000002C3BD1200003B0F0BD002C0CD01A7B00
:102B8000944209D81A6863001B19033BD3189B7839
:102B9000002BEBD00123E9E73E4B3F4A68213F4839
:102BA0000EF0B0FB3E4B3F4A67213F480EF0AAFBB8
:102BB00003689C7B002CDBD012D01A7B94420FD888
:102BC00062001219033A19688C466244517899736D
:102BD000002900D1D9730023937053701370C7E795
:102BE0002C4B2D4A68212D480EF08CFB002C3AD03E
:102BF0002B681B7B9C4236D82C4BE3181B01AA6820
:102C000094466344009A1A60019A5A60089A9A603E
:102C1000099ADA602E68002C2BD030D0337B9C428E
:102C20002DD863001B19033B32689446634400228D
:102C30009A705A701A70717B22003000FFF766FF9D
:102C40007073844200D095E7287D009A019B00F0C4
:102C500073FD061E01D0002F17D00C9B002B00D156
:102C600088E71E7086E7124B124A3C210E480EF090
:102C700049FB114B114AA52108480EF043FB054BB7
:102C8000054A682105480EF03DFB2868210000F048
:102C90008BFFE2E70C290210DC2B0210282902101E
:102CA000AC290210E82B0210A8280210FFFFFF0F2A
:102CB000E8280210702B0210A4280210CC2B02105E
:102CC000F0B5DE4657464E464546E0B58BB0099016
:102CD000002308938200B54BD658370052E0B44B1E
:102CE000B44A3F21B4480EF00DFBB44BB44A3C212A
:102CF000B4480EF007FB002901D1002869D100215A
:102D0000404600F047FFA04219D12A686B6806923E
:102D10000793AB689846EB689A464346002B14D05D
:102D2000002C18D03B681B7B9C4214D8631EFA68A9
:102D3000D35C08931B0218433861002015E0A24BB6
:102D4000A24A8E219F480EF0DDFAA14B9F4A9221A4
:102D50009C480EF0D7FA994B9E4A412199480EF0B3
:102D6000D1FA00239A46984600207B68BFF35F8F14
:102D700000221A6086F310884346002B32D10028C7
:102D800000D10CE100F04CFC02000B1EA7DB002080
:102D90000021069007917868EFF3108672B60168FB
:102DA0000029FCD0BFF35F8F396888464C7B002C2C
:102DB000D7D09AD0097B8C4297D8874965182D01C6
:102DC000B9688C46654428686968801A9941002969
:102DD00091DD2A686B68099800F0AEFC00239A46E2
:102DE0009846C2E7089B1B022343994651461800A8
:102DF000C04705000E007A68EFF3108B72B61368B7
:102E000059424B41D9B2002BF9D1BFF35F8F002E4D
:102E10001EDB002E46DD3B69002B47D04B456DD1B4
:102E200000F0FEFB02000B1E6EDB52197341002BFB
:102E300070DB002B72DB00210491013103910294BD
:102E400051460191414600913800FFF77FFE4CE06A
:102E50003B69002BDDD04B4514D1069A079B521BD2
:102E6000B341002B14DB002B16DB00210491013150
:102E70000391029451460191414600913800FFF7B9
:102E800065FE32E0554B514AA1214E480EF03AFA08
:102E900001225242524BE6E7454B464A3F21464803
:102EA0000EF030FA002E01D1002DB4D13B68002C79
:102EB00050D05A7B944237D1012100294AD1DA7B84
:102EC000002A4DD19A7B002A03D1DA7B002A5AD1FD
:102ED0009C73DC73002C5CD03B681B7B9C4258D8F5
:102EE000FA68013C135D0133135500233B617A6896
:102EF000BFF35F8F13608BF3108843E7374B334A80
:102F0000A42130480EF0FEF9294B2A4A3F212A48D5
:102F10000EF0F8F901225242314B8AE7244B254A40
:102F20003F2125480EF0EEF9002C0DD01A7B94427B
:102F30000AD862001219033A1868844662449278EB
:102F4000002ABAD00121B8E7264B274A6821274832
:102F50000EF0D8F9264B274AF62124480EF0D2F974
:102F6000002A0AD0197B8A4207D851008A18033AEE
:102F700019688C4662445470A4E71A4B1A4A6821B7
:102F80001A480EF0BFF91C4B1A4AFB2117480EF0E5
:102F9000B9F90A4B0F4A41210A480EF0B3F90BB0B8
:102FA000F0BCBB46B246A946A046F0BD04D80020FE
:102FB000901B02103C2B0210AC1B0210E8280210E0
:102FC000702B0210A8280210D4290210542B0210D2
:102FD000EC290210942B0210FFFFFF0FF8290210BA
:102FE000FFFFFF7F0C290210DC2B021028290210A2
:102FF000342A0210A82B0210582A021010B50C4BCC
:103000005B68002B04D00A210A48FFF75FFC10BD63
:10301000074C2300084A1021206800F0CBFC032055
:1030200000F0F2FA03212000FFF7A8FCEBE7C0460E
:1030300044120020FCE90020ED29001010B5064BD9
:103040005B68002B01D0044810BD044B044A5E218C
:1030500004480EF057F9C046441200206C2A0210B2
:103060007C2B0210A8280210F0B5DE4657464E46CB
:103070004546E0B58BB0804616001F00149B9A466B
:10308000159B994616AB1B789B461F2302AA9446B4
:10309000634400221A702BE0002809D042461268CF
:1030A000127B904204D8421E4146C9688A5C41E0C6
:1030B000404B414A412141480EF024F907984CE029
:1030C000361BAF41002F07DB002F11DA3C4B3D4A86
:1030D0003F213D480EF016F9012676423B4FF3E7BB
:1030E000374B384A3F2138480EF00CF9002F4FDBA0
:1030F00043465A68EFF3108472B6136859424B4145
:10310000D9B20791002BF8D1BFF35F8F1F3302AA0A
:103110009446634404930023039302934B46019324
:103120005346009332003B004046FFF70FFD031E5D
:10313000B2D1020041464968BFF35F8F00250D60A0
:1031400084F31088002B29D01F2302A98C466344E6
:103150001B78002BB2D112021043002B20D05B460B
:10316000002B1DD04946D04704000D0003000B433F
:103170001DD00029A4DB00F053FA06000F1EAFDBC0
:1031800036196F41002FB1DA012676420F4FADE7B5
:103190000B4B0C4A3F210C480EF0B4F80120404282
:1031A0000BB0F0BCBB46B246A946A046F0BD07989E
:1031B000F6E7C046E8280210942B0210A828021057
:1031C000901B02103C2B0210AC1B0210FFFFFF7F74
:1031D000F8B50400002900D162E04268EFF31085E1
:1031E00072B6136858424341D8B2002BF9D1BFF3ED
:1031F0005F8FCBB22268567BB3421BD101200028DF
:1032000048D0206988422BD0090AC9B2002B2ED0A1
:103210002068007B83422AD8581EE668305C8842CA
:103220002BD000206368BFF35F8F00221A6085F304
:103230001088F8BD002B0DD0167BB3420AD85E0073
:10324000F618033E1768BC466644B678002ED6D002
:103250000120D4E7134B144A682114480EF052F8A9
:103260002C21134B134AFF3113480EF04BF8134B2C
:10327000134A412110480EF045F81900100000F0E3
:1032800093FC0028CED199210E4B0A4A49000A48E6
:103290000EF038F823698B42C4D100232361C1E7C3
:1032A0000020C6E70C290210DC2B0210282902108E
:1032B000902A0210242B0210A8280210E8280210DD
:1032C000942B0210B42A0210407D7047F0B585B0EF
:1032D0000700100019000C9E13000B4301D10120C0
:1032E0000021B7600A9B3361306071600B9B736192
:1032F000CA1713005040040051400D00A41A9D410C
:1033000000F08EF902000B1E12DB12196B41002B2C
:1033100014DB002B16DB0121029101960C49009170
:103320003800FFF7A1FEF060C043C00F05B0F0BD4C
:10333000084B094A3F2109480DF0E4FF012252429F
:10334000074BE6E7034B044A3F2104480DF0DAFF40
:103350003D290010901B02103C2B0210AC1B0210E8
:10336000FFFFFF7FF0B587B006000F00EFF3058386
:10337000002B1FD106246442E517A4197D418D421C
:1033800002D803D1844201D900240025002D14DB8A
:103390000494059500F044F902000B1E13DBA41AF7
:1033A0009D41002D17DC14D03000390000F044F9A5
:1033B00007B0F0BD23480EF03FF8234B234A3F21CE
:1033C00023480DF09FFF204B204A3F2120480DF05D
:1033D00099FF002CE8D0FFF731FE00230293019300
:1033E0001C4B0093049A059BFFF73EFE002818DA59
:1033F000DAE7002300E00023002BD5D1164B1A6832
:10340000EFF3108172B61368002BFCD0BFF35F8F0F
:10341000114B1B68BFF35F8F00221A6081F3108885
:1034200020BF0499059A0D4B5B6A9A42E3D80B487A
:10343000806A884203D29A42DBD00123DCE7012371
:10344000DAE7C046B82A0210901B02103C2B02108B
:10345000AC1B0210BD290010FCE900200040054013
:1034600070B504000D0000F0DBF802000B1E0ADB53
:10347000200029008018594100290ADB00290CDBB3
:10348000FFF770FF70BD084B084A3F2108480DF058
:1034900039FF012040420749F0E7034B034A3F212F
:1034A00003480DF02FFFC046901B02103C2B02106A
:1034B000AC1B0210FFFFFF7F10B5FA229200002321
:1034C00000210FF0B9FCFFF7CBFF10BD70B584B041
:1034D00005000C00EFF30583002B1ED1FFF7AEFDB6
:1034E000002302930193224B00932A002300FFF74D
:1034F000BBFD061E23DD20BFFFF7A0FD3100FFF757
:1035000067FE1C4B5B6A9C422DD81A4A926AAA42FB
:103510002CD29C4225D0012026E0164B5B6A9942B2
:1035200009D8144A926A824207D2994201D00120F6
:103530001AE0002018E0002016E0012014E00D4BF6
:103540005B6A9C4209D80B4A926AAA4207D29C4203
:1035500001D0012008E0002006E0002004E0012066
:1035600002E0002000E0002004B070BD0120FBE775
:10357000BD2900100040054070B5EFF305801038FC
:10358000EFF3108C72B61A4B1B68002BFBD0BFF305
:103590005F8F01221300834016494B6316490B606D
:1035A000164909780C00C440224214D0114A546ACA
:1035B0008200134D5259944206D38200114C125985
:1035C00099430E4B197007E00A4A031D9B00995856
:1035D0009950002200E00022BFF35F8F044B0021CE
:1035E00019608CF31088002A00D0904770BDC04647
:1035F000280100D0004005403C70054076F20020D4
:103600001CEA00205027002010B50100024A0348A0
:10361000FEF732FB10BDC046082C021063F20020FA
:10362000044B5B6A034A906A1900536A9942F9D1C4
:103630007047C04600400540084B5B6A01E0074BFD
:103640005B6A8B42FBD301E0044B5B6A8B4203D184
:10365000024B9B6A8342F7D37047C0460040054047
:1036600070B504000D00FFF7DBFF02000B00200027
:103670002900801859418B4202D804D1824202D9D4
:1036800001204042C117002902DBFFF7D5FF70BDC2
:10369000024B034A3F2103480DF034FE901B0210F9
:1036A000B42C0210AC1B021070B504000D00EFF337
:1036B000108672B61B4B1B68002BFBD0BFF35F8FCD
:1036C000002D1CD02000FEF705FE174B83420BD0C7
:1036D00019002000FEF718FE01212000FEF7EAFD88
:1036E0000123A340114A1360A400114BE550BFF31E
:1036F0005F8F0C4B00221A6086F3108870BDA20009
:103700000B4B0021D1500122A2400A490B78934370
:103710000B7005492000FEF73BFF00212000FEF75B
:10372000C9FDE4E7280100D0793500103860054074
:103730005027002076F20020F0B5DE4600B584B0B8
:103740000400150001921E000293FFF769FF039524
:103750008E4202D84ED185424CD9EFF3108B72B60F
:10376000274B1B68002BFBD0BFF35F8F254A1778D0
:103770000125A540EBB23B431370234B5D63221D33
:1037800092000199D150A2002049029850501B6A22
:103790002B4212D11C4B1B6C2B4208D00020BFF3D4
:1037A0005F8F174B00221A608BF3108823E0184BB1
:1037B000184AC52118480DF0A5FDFFF731FF8E42CC
:1037C00014D802D1039B834210D80E4B1B78BB4206
:1037D0000ED00D4B1D625D631F2004400123A340EA
:1037E0000E4A1360074B1F701E38D8E70020D6E73B
:1037F0000120D4E7012004B080BCBB46F0BDC04628
:10380000280100D076F20020004005401CEA00208C
:103810002C2C0210982C0210502C021080E200E098
:10382000EFF3108C72B60B4B1B68002BFBD0BFF371
:103830005F8F01238340084A136208490A789A433C
:103840000A70BFF35F8F034B00221A608CF310885D
:103850007047C046280100D00040054076F20020A5
:1038600010B500291ED0037B99421BD84B005B1872
:10387000033B0468A4466344002919D0002A1DD0E4
:10388000914221D0002A25D0047BA24222D804688C
:1038900050008018033820188170197800291FD132
:1038A0001A7010BD104B114A682111480DF02AFD05
:1038B000104B114A6F310E480DF024FD0F4B0E4A8C
:1038C00070210B480DF01EFD0D4B0B4A712108486D
:1038D0000DF018FD044B054A682105480DF012FD56
:1038E00041701A70DDE7C0460C290210C02D02108D
:1038F000282902107C290210AC2D02108829021000
:103900009429021070B506000D001400002914D08F
:10391000002A14D0806873689847002806D02200D7
:1039200029003000FFF79CFF280007E02A00210053
:103930003000FFF795FF200000E0100070BD080088
:10394000FCE7000010B50023437301338373037B4E
:10395000C3730123027B9A4214D9002B0CD0027B43
:10396000934209D85A00D218033A01688C4662443F
:103970000133DBB25370EDE70B4B0C4A68210C4866
:103980000DF0C0FC002A09D0924207D8016853000C
:103990009A18033A8A180023537010BD024B034A49
:1039A000682103480DF0AEFC0C290210C02D021056
:1039B0002829021010B5017342608360FFF7C2FF2F
:1039C00010BD000070B50400081E00D170BD0029B4
:1039D00034D0237B994231D84B005B18033B2268DB
:1039E000944663445A78002AF0D02DD0237B9A4223
:1039F0002AD853009B18033B21688C4663445D78AA
:103A000000215970002825D0237B984222D84300FA
:103A10001B18033B21688C46634400215970010048
:103A20002000FFF76FFF060029002000FFF7CAFF04
:103A3000020031002000FFF765FFC7E7084B094A85
:103A4000682109480DF05EFC054B064A68210648CE
:103A50000DF058FC024B034A682103480DF052FC5C
:103A60000C290210C02D02102829021070B5050083
:103A70000C00160000292FD034D0037B994231D896
:103A80004B005B18033B0268944663445A78002A53
:103A90002ED19A78002A31D11978FFF793FF0300CD
:103AA000002E0AD0EA7B002A2ED1AA7B002A03D15D
:103AB000EA7B002A3BD1AC73EC73002B3DD1002C88
:103AC0004FD02B7B9C424CD82B6861000C19033CD7
:103AD0001C190023637070BD254B264A38212648E7
:103AE0000DF010FC254B264A682126480DF00AFCF3
:103AF000254B204A3A2120480DF004FC234B1D4A57
:103B00003B211D480DF0FEFB002A0AD0297B8A428A
:103B100007D851008A18033A29688C4662445470C9
:103B2000C3E7164B164A682116480DF0EBFB184BFD
:103B3000104A422110480DF0E5FB002B0BD02A7BE8
:103B4000934208D843001B18033B2A6894466344F9
:103B500000229A70B3E7094B094A682109480DF021
:103B6000D1FB064B064A682106480DF0CBFBC04648
:103B7000CC2C0210982D0210D42C02100C2902100B
:103B8000C02D021028290210142D02103C2D021005
:103B9000582A021070B504000A00457B2900FFF77F
:103BA00065FF6073280070BD70B50400002967D000
:103BB000437B8B420ED0002911D0037B99420ED853
:103BC0004B005B18033B0268D0188378002B0CD1A4
:103BD000002056E00121FFF7DDFF012051E0294BD5
:103BE000294A682129480DF08DFB002B20D0227B2B
:103BF00093421DD85A00D318033B2268D218256877
:103C0000EB5C8B421AD0002B1BD0227B934218D83E
:103C10005A00D318033B2268D21853788B4216D02F
:103C2000002BF0D11A4B1B4A6B211B480DF06AFB8D
:103C3000144B154A682115480DF064FB4378137046
:103C400007E0104B104A682110480DF05BFB4378E9
:103C5000537000238370437001222000FFF706FF9A
:103C60000200617B814205D02000FFF74BFE6073AC
:103C7000012006E0094B074A712107480DF042FB7D
:103C8000002070BD0C290210C02D0210282902103E
:103C900024260210802D0210D42C0210602D021058
:103CA000F0B5C64600B504000E0017001D003748E9
:103CB0000EF0F0FC8046364BFA18364B9A4239D853
:103CC000010038000EF0E6FC0200103A98235B0079
:103CD0009A4235D86B1E062B38D8069B013B062B23
:103CE00034D83F09474537D32D04069B1A031543A3
:103CF0002368002B36DB284B9C4244D080225201A3
:103D0000264B1A60264B1A60264B9B68110099437C
:103D1000FAD12660A060231DC02292011A432123FC
:103D200013602368002BFCDAE5600823136080BC75
:103D3000B846F0BD1C4B1D4A11211D480DF0E2FA9A
:103D40001C4B1A4A19211A480DF0DCFA1A4B174A73
:103D50001C2117480DF0D6FA184B144A2321144899
:103D60000DF0D0FA22683F231340B342C3D1A368B9
:103D70001B051B0D8342BED1E368EE22D202134025
:103D8000AB42B8D1D3E780229201B9E7001BB7005C
:103D900080E84BD380F8A93200C0024000E0004028
:103DA00000F0004000C00040CC2D0210F42E0210A4
:103DB0002C2E0210702E02108C2E0210D82E021003
:103DC00080239B000343014AD36270470080054073
:103DD000024B1A68024B5A607047C046EC3D002007
:103DE0000080054010B50200164B8020C005186009
:103DF000154B1648186000290AD0154BE021C9045C
:103E00001960002A09D1124B802212061A6010BDD7
:103E10000C4BE021C9041960F3E753019B1A980089
:103E2000801800010B4B186080235B04984202D37A
:103E3000084B094A1A60FFF7CBFF054B8022D205D9
:103E40001A60E4E700B0054008200140FCFF0100D3
:103E500000A00540EC3D0020FFFFFF0010B503006F
:103E600010000C4A8024E4051460002B0DD00122C0
:103E70001343094A094CD461094C5C4014625162F5
:103E800093620021FFF7AEFF10BD034B0022DA6101
:103E9000F7E7C04600B0054000800540D3C007B03A
:103EA0002D3FF84F064BAA2212011A602F22DA602A
:103EB000044B054A1A60024B5B68002BFBDA704723
:103EC000004002400060024000B0FA0010B501F06E
:103ED00053FC00F0C5FB00F09DFD00F041FE05F035
:103EE00093FD01F009FD00F018FA05F0C5FC10BDC6
:103EF0000302000A184380B2704703060202FF2142
:103F000009040A401343020AFF2109020A4013432D
:103F1000000E18437047000000280AD0C07A00281D
:103F200009D1431C9B00054A9B58002B04D001205B
:103F300002E0002000E000207047C0464C35002021
:103F400010B5FDF71BFE80B2002301E00133DBB2A8
:103F5000032B0FD81A01D218120107498A18927A36
:103F6000022AF3D11A01D21812018A181289824248
:103F7000ECD1E6E710BDC04654350020F0B5D6467A
:103F80004F464646C0B506008846002401E001348D
:103F9000E4B2032C23D8250063001B199B00314A8F
:103FA0009F58002FF3D063001B199B00D3181B7A76
:103FB000B342ECD130018019000110302A4BC018F7
:103FC0009246630099461B199B0053445A68414628
:103FD000B8474D44AD0000235246AB50D7E700230D
:103FE00001E00133DBB2032B1BD8B342F9D01A0135
:103FF000D21812011C498A18927A022AF1D11A01A8
:10400000D21812018A18D07B3201921912018A1833
:10401000D27B9042E5D133019B191B01CB180422BE
:10402000DA7333019B191B010F4AD318DB7B032B77
:1040300004D9E0BCBA46B146A846F0BD0B4C9B0083
:10404000185905F0DFFF084A300183191B01D31806
:10405000DB7B9B00002119518019000110180423FB
:10406000C373E6E71C350020543500200C350020D2
:10407000F0B5D6464F464646C0B584B080460301EB
:1040800043441B01534AD318DB7A012B34D89B00DD
:10409000514A9B58002B32D004014444240110346F
:1040A0004C4BE418200018F023F9A022123081B202
:1040B0009200362000F0E8FF8146002800D185E01C
:1040C00001AD0C22002128000EF086FF43461B01A3
:1040D00043441B013F4AD3181889FFF709FF288082
:1040E0000123AB70FF33AB800C222900484601F05E
:1040F000F3F9661E0C2737E038480DF09DF90021D2
:10410000FFF73CFF4346180140440701314BDF19DC
:104110000023BB720024200004B0E0BCBA46B146C4
:10412000A846F0BD0134E4B2013633782E2B01D01D
:10413000002BF7D1731B9BB29A463B19284A934236
:1041400016DC22003900484601F060FA7B1C9BB265
:1041500052462900484601F00BFA3C19A5B26F1CE3
:10416000BFB23378002B09D0013635000024DCE7DC
:10417000484600F04BFF06246442CCE70022390099
:10418000484601F043FA0235ABB28022520069463C
:104190000A804A80FC3A484601F0EAF90D49434654
:1041A0001B0142469A1812018A18D07BD37A9B00D1
:1041B000094AD21880000B4940583523494605F07A
:1041C00099FE0400484600F021FFA4E70124644260
:1041D000A1E7C046543500204C350020002F0210C6
:1041E000FEFF00000C35002070B50400000100192E
:1041F0000001414BC018032C20D823011B191B01BF
:104200003D4AD3189B7A022B34D01AD8002B14D0F5
:10421000012B00D06CE0FFF793FE37492201131900
:104220001B01CB181881022098720020D87201253A
:104230001D7358732000FFF71BFF70BD2F480DF052
:10424000FBF8032B54D123011B191B012A4A9B584D
:10425000002B07D0013B22011219120126495350AD
:10426000002BEAD12001041924012348041900235A
:10427000A372E2E723011B191B011F4AD218137B0B
:10428000013BDBB21373002BD7D123011B191B0198
:10429000194AD218537B0133DBB25373042B09D074
:1042A00022011219120114498A1813732000FFF712
:1042B000DFFEC2E7FFF730FE00280DD00E492201D5
:1042C00013191B01CB18D87A0130D872012018734A
:1042D0001A0000235373E9E700212000FFF74EFE88
:1042E000200104192401044B1C190023A372A4E724
:1042F00003480DF0A1F8C04654350020182F0210D5
:10430000342F021010B5002404E02000FFF76CFFEA
:104310000134E4B2032CF8D910BD7047012800D94C
:104320007047002904D080000A68044BC250F7E7A8
:104330008000034B1A68014BC250F1E74C35002056
:104340001056021010B5FFF7DDFF10BD30B583B079
:104350006B460022DA8001231D000540184206D07A
:10436000002904DD02786B46DA710139013003223D
:1043700013000340104209D0012903DD03880239EC
:10438000023003E0002301E00839200007290CDD9A
:104390000268D218934200D90132040008344368FD
:1043A0009B189A42F0D90133EEE71A0C1B041B0C40
:1043B000D31803E002889B18023902300129F9DC86
:1043C000002902DD01786A4691716A460632128838
:1043D000D318180C1B041B0CC318180C1B041B0C43
:1043E000C018002D05D003061B0C020AFF20104048
:1043F000184380B203B030BDF0B583B00600019120
:1044000015001C00002700E03668002E15D07189C9
:104410007068FFF79BFF0019040C0004000C2418BF
:104420007389DB07F0D57B425F41FFB22206120C95
:10443000230AFF241C401443E6E7002F05D0220680
:10444000120C230AFF241C4014436B469888FFF784
:104450004FFD24182800FFF74BFD2018030C000423
:10446000000C1818030C0004000C1818C04380B28C
:1044700003B0F0BD70B51C6825042D0C230C5B192E
:10448000049C246825042D0CED18230C5B191C0CCE
:104490001B041B0CE3181C0C1B041B0CE318FFF77C
:1044A000ABFF70BD10B582B0049C0094FFF7E2FF33
:1044B00002B010BD10B5FFF749FFC04380B210BD78
:1044C00070B505000026002400E02D68002D15D0F1
:1044D00069896868FFF73AFF0019040C0004000CB2
:1044E00024186B89DB07F0D573425E41F6B22306D0
:1044F0001B0C240AFF2004401C43E6E7002E05D0D5
:1045000023061B0C240AFF2004401C43E04380B216
:1045100070BD0000014B1B68181870471CD80020A4
:10452000024B1B68C01A80B27047C0461CD80020DE
:10453000F8B50400FFF7F4FF050027883800FFF7FF
:10454000E9FF060064882000FFF7E4FFFA231B015F
:104550009F420FD89C420FD8AC4202D00388AB4296
:104560000CD1094B1B68B3420AD07388AB4209D106
:10457000012000E00020F8BD0020FCE70020FAE761
:104580000120F8E70020F6E720D8002070B50400ED
:104590002C4B1B68834242D82B4B1D68854241D966
:1045A0000379002B41D10088FA231B0198423FD8A0
:1045B000FFF7B0FF844216D00379002B13D1854258
:1045C00011D0224B1B68834235D00388238000889A
:1045D000FA231B01984206D0FFF79CFF050020003C
:1045E000FFF79EFF68806088FFF794FF0500844214
:1045F00014D00379002B11D1144B1B68A3421DD09A
:1046000023882B802088FA231B01984206D0FFF7CD
:1046100081FF04002800FFF783FF608070BD0C4815
:104620000CF00AFF0B480CF007FF0B480CF004FFDE
:104630000A480CF001FF054B1C60C6E7034B1860ED
:10464000DEE7C0461CD8002020D80020E83D00202E
:10465000542F02106C2F0210882F0210A42F02106A
:1046600070B50C4C033403239C430B4B1C60FA25A0
:104670002D0125800023638023712800FFF74AFF66
:10468000064B18600123037105804580044B1C60B4
:1046900070BDC04624D800201CD8002020D800209F
:1046A000E83D002070B5041E23D0830722D1050009
:1046B000083D164B1B68AB421FD803000C33144A4D
:1046C0001268934219D80300083B1B79002B17D0BE
:1046D0002800FFF72DFF002815D0083C0023237188
:1046E0000C4B1B68AB4201D90A4B1D602800FFF739
:1046F0004DFF70BD08480CF09FFE08480CF09CFE72
:1047000007480CF099FE07480CF096FE1CD80020D4
:1047100020D80020E83D0020D02F0210F42F0210F6
:104720001030021038300210F0B5C64600B5050052
:10473000CC1CA4B203239C430B2C05D9FA231B01E8
:104740009C4202D900253FE00C248C4200D277E045
:104750003C4B1B68AB423BD83B4B1B68AB4237D949
:104760002F00083F3800FFF7DBFE06003F883B1AAA
:104770009BB2083B9BB298469C422CD824D0380070
:10478000FFF7C8FE0379002B31D1FA231B019F42AA
:1047900024D00788A419A4B20834A4B22B4B1B68F8
:1047A00083421ED02000FFF7B5FE0023037107806F
:1047B00046802B00083B1C800088FA231B0198428E
:1047C00002D0FFF7A7FE4480280080BCB846F0BDA9
:1047D0001F480CF031FE1F480CF02EFE1E480CF056
:1047E0002BFE2000FFF796FE184B1860DAE7230037
:1047F00014334345E8D8A419A4B20834A4B2FA2368
:104800001B019F4219D02000FFF784FE0F4B1B684D
:10481000834201D90D4B1860002303712B00083B24
:104820001A88028046801C800088FA231B01984267
:10483000CAD0FFF76FFE4480C6E707480CF0FCFDC6
:104840000025C1E71CD8002020D80020E83D00202A
:104850006C30021084300210A4300210F0B5CE4645
:1048600000B582B0002800D182E0C51CADB20322A1
:1048700095430B2D05D9FA231B019D4202D9002037
:1048800072E00C25854200D274E03B4B1B689946D0
:104890001800FFF745FE070032E038480CF0CCFD69
:1048A00001230371A14510D0019BE5180835344B55
:1048B0001B689D421DD8A3071ED12000083053E07D
:1048C0004B461888FFF726FE81464B461B79002B86
:1048D00003D02B4A12684A45F2D1274A4946116053
:1048E000274A12684A45DFD0002BDDD025480CF05E
:1048F000A3FD25480CF0A0FD24480CF09DFD278861
:104900003E000195FA231B015B1B9F422BD238000E
:10491000FFF700FE04000379002BF0D103889E1BF3
:10492000083E019B9E42EAD314339E42B8D37E19BF
:10493000B6B20836B6B2FA231B019E42ADD03000A3
:10494000FFF7E8FD0023037123880380478026805A
:10495000012323710088FA231B019842A2D0FFF79C
:10496000D9FD46809EE7002002B080BCB946F0BD6C
:104970000020F9E70020F7E7E83D0020A43002100E
:1049800020D80020B8300210D430021004310210B8
:1049900010B50400FCF752FDE3681C68002C0AD037
:1049A00022681A60A30703D1FCF74AFD200010BD5E
:1049B00002480CF041FDFCF743FDF7E734310210EB
:1049C00070B505000C008B0709D1FCF737FDEB68CB
:1049D0001B682360EB681C60FCF732FD70BD01486A
:1049E0000CF02AFD58310210C36800221A60836857
:1049F000033303329343002207E0C168096819605A
:104A0000C1680B6081885B180132C1889142F4DC77
:104A10007047000010B5002406E0A200044BD058F7
:104A2000FFF7E2FF0134A4B2082CF6D910BDC0464E
:104A3000A832021010B5082805D88000044BC058D1
:104A4000FFF7A6FF10BD03480EF08EFC0020F9E72B
:104A5000A83202107831021010B5082807D80029B2
:104A600004D08000044BC058FFF7AAFF10BD0348D4
:104A70000EF07AFCFAE7C046A83202109831021014
:104A80000B688268934206D0002902D0836001201F
:104A900070470023FAE70020FAE70B68C2689342E8
:104AA00006D0002902D0C360012070470023FAE736
:104AB0000020FAE70C204042704770B504000D005A
:104AC00001F08EFA2900200005F0CCFA2900200020
:104AD00000F036FE70BD000010B500280DD039235F
:104AE000C25C343B1340052B06D1CB0704D5436889
:104AF000002B01D0130703D410BD03480CF09CFC1D
:104B0000011D06F097FEF7E7CC32021030B583B0F6
:104B100005000C001000002908D0002A09D06B689D
:104B20000A689A4208D1002003B030BD0B480CF04F
:104B300083FC0A480CF080FC0192036001A9FFF796
:104B4000BCFF23686B6001212800FFF7C5FFEB69FC
:104B5000002B01D0280098470120E5E7F032021031
:104B600070470000F0B5C64600B582B005000C00E5
:104B700017001E00002920D0002F20D0002E20D0AA
:104B8000002C02D02368002B1DD101AA210028008F
:104B9000FFF7BCFF01239846002239002800FFF7E9
:104BA0006FFF002231002800FFF777FF4346002BFC
:104BB0000CD002B080BCB846F0BD074CDCE7064F15
:104BC000DCE7054EDCE700239846E5E701AA210073
:104BD0002800FFF79BFFECE710560210F0B5C64621
:104BE00000B504000E0017009846002832D0079B3D
:104BF000002B34D0002937D0002F37D04346002B6C
:104C000036D000256560A560E560354B636125867B
:104C100000223923E25420002830042200210EF023
:104C2000DBF9E5612562069B63622E4B1A783C2313
:104C3000E254089B236143463A0031002000FFF70D
:104C400091FF2000079B9847002823D0002080BCBC
:104C5000B846F0BD24480EF087FB2000F7E7234854
:104C60000EF082FB0020F2E7214EC5E7204FC5E79A
:104C70001F4B9846C5E7C33B0022E2540EE01D4897
:104C80000CF0DAFB1C480CF0D7FB01313C22A1549C
:104C9000002B15D03C23E35CFF2BECD0174B1D6899
:104CA0002B000022002BF3D09C42E8D00132FF2AD7
:104CB000E8DC3C21585C615C8842E6D01B68F1E787
:104CC0003C33E35CFE2B07D00133064A13702560AA
:104CD0000A4B1C602000BAE7024B00221A70F6E76C
:104CE000B54A00106EF20020003302101C3302108F
:104CF000105602104033021054330210F0D7002037
:104D0000014B18607047C046ECD7002010B5041E58
:104D100010D03923C35CDA070BD4012213433922A4
:104D20008354C369002B00D0984703212000FFF76C
:104D3000D3FE10BD01480EF017FBFAE784330210D2
:104D400010B5041E0FD03923C35CDA070AD501223F
:104D50009343383283541B0709D4E369002B01D0F5
:104D60002000984710BD03480EF0FEFAFAE706F05F
:104D7000B3FCF2E7A033021010B5041E28D043683C
:104D8000002B12D13923E35CDB0713D4114B1B68D2
:104D9000A34213D0104B1B68A34213D0002B17D093
:104DA0001A68A24212D01300F8E704300021FFF77E
:104DB00084FEE7E72000FFF7C3FFE7E70020FFF7E7
:104DC0009FFFE7E72268044B1A6001E022681A603F
:104DD00010BDC046ECD70020F0D7002010B5041E4F
:104DE00004D03923C35C5A0704D510BD09480EF01E
:104DF000BBFAFAE7042213433922835406F076F80B
:104E000003212000FFF768FE236A002BEDD020006D
:104E10009847EAE7C033021010B500280CD03923B8
:104E2000C35C5A0707D50422934335328354036A7F
:104E3000002B00D0984710BD01480EF095FAFAE714
:104E4000E4330210021E0BD0064B1868002808D06D
:104E50003C23C35C0133DBB2934202D00068F5E728
:104E600000207047F0D7002030B504AC257800242E
:104E7000046041600281438103AB1B780373457377
:104E800001238373C47330BD02E0C91A89B200687C
:104E9000002802D043898B42F7D9002A00D0118024
:104EA0007047000010B5FCF7C9FA034B01221A70D5
:104EB000FCF7C6FA10BDC04670F2002070B500289D
:104EC0001AD080235B02994221D2002921D08CB2D2
:104ED00003891B199BB2A3421DD30C254557002DF6
:104EE0000DDB002A19D04268511A41604289141919
:104EF0004481038100200BE009480CF09DFA4268D0
:104F0000511A020010328A42EFD9012000E001203C
:104F100070BD0020FCE70120FAE70120F8E7C04659
:104F2000684F021010B5FCF789FA084B00221A707E
:104F3000FCF786FA064B186800E0C068002804D029
:104F4000436F002BF9D000F0C9FE10BD70F20020B5
:104F50002CEA0020F0B583B007000E001500412AAE
:104F600001D0012A0FD10720FFF764FD041E07D0EE
:104F7000002301930095330032003900FFF774FFDE
:104F8000200003B0F0BD01480CF056FA08340210BE
:104F900010B50022FFF792FF10BD000010B50028E9
:104FA00014D080235B02994218D2002918D08AB20B
:104FB000438993420DD34468A446614441609B1ADF
:104FC000438103899A1A0281002010BD05480CF024
:104FD00033FA05480EF0C8F90120F6E70120F4E79E
:104FE0000020F2E7684F02101C34021010B50029AF
:104FF00002DBFFF763FF10BD4942FFF7CFFFFAE77F
:1050000010B50122FFF7F2FF10BD000070B5051EBC
:1050100001D000260CE019480CF00EFA18480CF0EC
:105020000BFA29000820FFF717FD0136F6B225001C
:10503000002D21D0FCF702FAAC7B002CEED0013C15
:10504000E4B2AC73FCF7FCF9002C15D12C682A7B78
:105050000F231340022BE4D0012B05D0002B08D1E5
:105060002800FFF71FFBE0E729000720FFF7F4FC0B
:10507000DBE704480CF0E0F9300070BD684F021027
:105080003C34021054340210F0B5D6464F46464622
:10509000C0B582B005000F00904684B2C1235B000A
:1050A0009A4241D011D8012A02D0412A00D07DE095
:1050B000424639000020FFF74DFF8146484602B0C6
:1050C000E0BCBA46B146A846F0BDA0239B009A4278
:1050D0006CD1E31C03218B439BB2FA1C94B28C432A
:1050E0001B199BB21800103080B28A43934260D3E0
:1050F000824261D8FFF7B2FB81460028DED029004A
:105100001031494403310324A14300230193434652
:1051100000933B003A00FFF7A7FE4B465B68234233
:10512000CCD027480CF088F900250023994626E0CA
:10513000FFF7B8FE4B46002B02D04846FFF766FF4C
:10514000A946BBE7B6B22100103169180331032428
:10515000A143002301934346009333003A00280003
:10516000FFF782FE6B6823421BD14B46002B1BD0FE
:1051700053461D60BF1BBFB20024002F9ED0AA461D
:105180000820FFF757FC051ED2D0E31C03229343EF
:105190009AB20C4B9B1A9BB21E1CBB42D2D93E1C2E
:1051A000D0E709480CF048F9A946E3E707480CF0B6
:1051B00043F90023994681E7002399467EE7C046DC
:1051C000CC340210EC05000068340210F8340210F0
:1051D00070B5041E12D00089884220D90D00638961
:1051E000AB420ED2ED1AADB223890A1A9B18238165
:1051F0002468002CF3D113480CF01EF912480CF06F
:105200001BF9227B120701D1AB4209D165812581AF
:105210002068002801D0FFF7F9FE0023236070BD4D
:105220006368191B691889B22000FFF77DFA00280E
:1052300004D08442EAD005480CF0FEF804480CF093
:10524000FBF8C0462C3502101435021060350210F0
:10525000443502100300002002E0013080B21B68D8
:10526000002BFAD17047000010B5041E09D0FCF7DE
:10527000E5F8A37B0133A373FCF7E2F8A37B002BD3
:1052800000D010BD01480CF0D7F8C0467C350210A4
:1052900010B5002801D0002908D10C480EF064F8A0
:1052A0000FE003890C891B19038110000268002A92
:1052B000F7D103894289934204D10A899B1803815B
:1052C000016010BD02480CF0B7F8C04690350210DE
:1052D000C835021010B50C00FFF7DAFF2000FFF709
:1052E000C3FF10BDF8B5CE46474680B506000D1E7B
:1052F000914698460AD00A894A4507D300280BD020
:1053000002894B449A4207DB002726E03D480EF015
:105310002BF81020404270E03B480EF025F810209A
:1053200040426AE039480CF087F839480CF084F8BC
:105330004B46002B36D10027424539D0002D03D0F3
:105340006A892B899A4245D0002E03D0728933890D
:105350009A4248D04B46002B4ED0738942469B1A46
:105360006A89D21B934200D313004C46994500D959
:105370001C00706840446B68D91922000DF032FEA1
:10538000A0443F194B461C1BA3B299467289424563
:10539000C8D36B89BB42C8D3CED82D68002DC7D0E7
:1053A0000027C9E71B480DF0DFFF1020404224E032
:1053B0003668002E02D000239846BFE74B46002BEC
:1053C00002D100239846B9E713480DF0CDFF102015
:1053D000404212E02B68002BB6D010480DF0C4FFFD
:1053E0000620404209E03368002BB3D00B480DF093
:1053F000BBFF0620404200E00020C0BCB946B046DA
:10540000F8BDC046F83502102C3602105C3602108A
:105410007436021090360210A0360210B036021018
:1054200010B5002904D00A890023FFF75BFF10BDE7
:1054300002480DF099FF10204042F8E7E8360210CC
:10544000F8B5CE46474680B5050088469146190016
:10545000002805D04346002B0BD00027002625E06E
:1054600019480DF081FF00273800C0BCB946B0468E
:10547000F8BD16480DF078FF0027F5E76C89641A2F
:10548000A4B2A14500D24C46434698196B689C468D
:10549000614422000DF0A6FDE719BFB23619B6B27D
:1054A0004B461C1BA3B2994600212D684B46002B8E
:1054B000DAD0002DD8D00029E0D06B898B42DDD81E
:1054C000C91A89B2F1E7C046043702102437021026
:1054D00010B5FFF7D9FC10BDF8B5CE46474680B5EC
:1054E0000500884616009146002806D000290AD0FB
:1054F000038993420DD300271DE018480DF034FFB7
:105500001020404223E016480DF02EFF10204042AC
:105510001DE014480DF028FF0120404217E012481A
:105520000BF08AFF4346D919220068680DF05AFD36
:10553000361B3F192D68002E06D0002DEFD06C8948
:10554000B442EFD33400EDE74F4504D10020C0BC96
:10555000B946B046F8BD05480BF06EFF483702105B
:10556000603702107C3702109C370210B4370210EB
:10557000F0B583B00F00140019006B469A1DFFF7B9
:10558000A7FF061E24D002896B46D88803199A42C9
:1055900021DB7389984212D21A1A944212DD95B215
:1055A00073689C4660442A0039000DF01BFD621BA5
:1055B00092B27919002A07D1002003B0F0BD074844
:1055C0000BF03AFF2500EBE73068FFF785FFF4E7C3
:1055D00001204042F1E701204042EEE7CC370210C3
:1055E00070B50B00150011891A00FFF74DFD041E60
:1055F00004D02900FFF714FF002801D1200070BD5E
:1056000001480BF019FFC046E437021010B582B014
:1056100014006B469A1DFFF75BFF002807D04289F4
:105620006B4606331B889A4201D94268D45402B0B3
:1056300010BD000010B5027A002A07D0134B5C6839
:105640003C23E35C0133DBB29A4213D1002906D03C
:10565000002811D00368002B10D000200BE0002898
:105660000ED00368002B0DD0084A526993420BD02C
:10567000080000E0002010BD0120FCE70120FAE74F
:105680000120F8E70120F6E70120F4E7D03D0020F3
:10569000F0B5D6464F4680B583B00500244B196857
:1056A000586907F09CFB07006B685E7A214B1C6809
:1056B00000239946019313E063699A46002B0DD0AD
:1056C0006B6899461C4B2A002100A069D04700282E
:1056D0001AD16B684B4528D1022399460194E4689E
:1056E000002C1CD0237C9E42F8D139002000FFF70B
:1056F000A1FF0028F2D0637CDB07DDD50C4B1B69D2
:1057000062689A42EAD1D7E7019B002B05D0E26894
:10571000DA60084B1A68E2601C600123994648462B
:1057200003B0C0BCBA46B146F0BD04480BF084FEDD
:10573000D03D0020E0E70020E03D0020F8370210D7
:1057400010B5002814D00368002B11D000290FD009
:105750000B68002B0CD0074B1B6800E0DB68002BAC
:1057600006D01A680468A242F8D10A681A60F5E700
:1057700010BDC046E0E700207047000010B50024CF
:1057800009E0154B154A1A800DE00134A4B28023BC
:10579000DB019C421DD2104A138801339BB2138057
:1057A0000F4A9342EDD0002003280FD883000D4A02
:1057B0009B581B68002B06D0D98A074A1288914251
:1057C000E3D0DB68F6E70130C0B2EDE7024B1888A2
:1057D00010BD0020FCE7C0467012002000C0FFFF93
:1057E000FFFF0000C03E021010B5002903D106489B
:1057F0000BF022FEC068002805D0C36F8B42F9D1A0
:105800000023C367F6E710BD4438021070B5051ECB
:1058100004D0037D012B04D101240DE008480BF0D6
:105820000BFE08480BF008FEA200074BD35818687F
:105830002900FFF7D9FF0134032CF5D970BDC0460C
:105840006C38021078380210C03E021010B501000A
:10585000037D012B03D00320FFF7FEF810BD0148A4
:105860000BF0EAFD9038021070B5041E09D0037DDC
:10587000042B19D0072B1ED0032B05D000252800A0
:1058800070BD12480BF0D8FD03F074FB051E01D16A
:1058900005232375002D15D06B1CF0D1638B0822D6
:1058A000134363830025EAE703F064FB051EF1D18F
:1058B00005232375EEE703F05DFB051EEAD10923FE
:1058C0002375E7E7200003F0CDFCD8E76C38021021
:1058D00010B5084B186800E02000002809D0C46803
:1058E000438B1A07F8D5082293434383FFF7BCFF85
:1058F000F2E710BD2CEA002010B5FCF73FF9800458
:10590000800C034B9C466044024B188010BDC0467F
:1059100000C0FFFF7012002010B50100037D012BB5
:1059200003D00220FFF798F810BD01480BF084FD6A
:10593000AC38021070B506000D1E0ED0002E0ED031
:10594000337D002B11D1002A15D00020032816DC4E
:10595000830025495B581B6821E0244DEEE724486D
:105960000DF002FD1020404217E022480DF0FCFC33
:105970000620404211E0FFF701FF021E25D0002D56
:1059800003D02B68002B00D03360F2821A4B1A68C8
:10599000F2601E6003F032FF002070BDDB68002B58
:1059A00011D0DC8A9442F9D1002B11D0196800295A
:1059B00011D0002D12D02C68002C12D0A142EDD1B4
:1059C00008204042E9E70130C0E702204042E4E716
:1059D00008204042E1E708204042DEE7082040423C
:1059E000DBE708204042D8E7C03E02101056021004
:1059F000C0380210D838021030EA002070B5040018
:105A00001600002829D0037D002B2DD1012B4BD06F
:105A10000320FFF70FF8051E4AD023690361E38ACC
:105A2000C38201230375637D4375637A4372237ACE
:105A30000372E37AC372A37A837223680360E38AF2
:105A4000002B20D01C4B1B68A34214D0002B18D075
:105A5000D968A14213D00B00F8E718480DF084FC78
:105A6000250010235B421AE015480DF07DFC0F2342
:105A70005B42002513E0DA680F4B1A6001E0E26830
:105A8000DA600023E3602000FFF746FF0D4BAB61B7
:105A90000D4B1A68EA601D6003F0B0FE0023002E73
:105AA00000D03370280070BD050009235B42F6E783
:105AB00001235B42F3E7C04630EA002000390210C0
:105AC00030390210055F001038EA002010B50022BE
:105AD000FFF794FF10BD0000F8B5002816D0456A06
