:020000041000EA
:1000000000B5324B212058609868022188439860DF
:10001000D860186158612E4B002199600221596106
:100020000121F02299502B49196001219960352056
:1000300000F044F80222904214D00621196600F024
:1000400034F8196E01211966002018661A6600F04E
:100050002CF8196E196E196E052000F02FF8012189
:100060000842F9D1002199601B49196000215960AB
:100070001A491B48016001219960EB211966A021F2
:10008000196600F012F800219960164914480160C1
:100090000121996001BC002800D000471248134993
:1000A000086003C880F30888084703B5996A0420EC
:1000B0000142FBD001200142F8D103BD02B5186610
:1000C0001866FFF7F2FF186E186E02BD00000240BE
:1000D000000000180000070000035F00212200005C
:1000E000F4000018222000A00001001008ED00E03C
:1000F00000000000000000000000000074B24E7A12
:1001000000200420F7010010C3010010C5010010F9
:10011000C1010010C1010010C1010010C101001097
:10012000C1010010C1010010C1010010C701001081
:10013000C1010010C1010010C9010010CB01001065
:10014000CD010010CD010010CD010010CD01001037
:10015000CD010010CD010010CD010010CD01001027
:10016000CD010010CD010010CD010010CD01001017
:10017000CD010010CD010010CD010010CD01001007
:10018000CD010010CD010010CD010010CD010010F7
:10019000CD010010CD010010CD010010CD010010E7
:1001A000CD010010CD010010CD010010CD010010D7
:1001B000CD010010CD010010CD010010CD010010C7
:1001C00000BE00BE00BE00BE00BE00BEEFF3058054
:1001D000103800BEF2EB8871E897051010980510F2
:1001E0003402001090A31AE700201F49086006C8D7
:1001F00081F3088810471D48006800282FD10DA4FE
:100200000ECC002902D000F012F8F9E71849194A7B
:10021000002000E001C19142FCD1174988471749ED
:1002200088471749884700BEFDE701C901C29A42C5
:10023000FBD3704710980510C0000020F81900206B
:1002400048B10510000004200000042048B105104A
:10025000001004200010042000000000704709482E
:1002600001F028FC0047000008ED00E0000000D08D
:10027000181A00203CE200203D0D01101D0900105D
:10028000F90C01105756000006005250ABB36053F2
:100290000887051006005250861C030218870510B7
:1002A000060052505422A29D24870510050052508A
:1002B000DE65F46848B10510F8B5C0460448054B42
:1002C00010B5834203D0044B002B00D0984710BDDB
:1002D000F8190020F819002000000000064807491E
:1002E000091A8B10C90FC91810B5491003D0044B57
:1002F000002B00D0984710BDF8190020F8190020F5
:100300000000000010B5074C2378002B09D1FFF73F
:10031000D5FF054B002B02D0044800E000BF0123AD
:10032000237010BD701B00200000000000BB0110F6
:10033000054B10B5002B03D00449054800E000BF71
:10034000FFF7CCFF10BDC04600000000741B00206A
:1003500000BB0110F0B585B00C0015001E0008228E
:10036000204915F073FF002802D0002005B0F0BD31
:100370000B276F443A0000211B480FF0E5FC3B7847
:100380000393002C06D003AA1849200015F02EFE76
:1003900001280DD0039B002B19D0154B019300238E
:1003A0000093144B144A3100280011F009FEDDE7D8
:1003B000039B002B05D0012200210B480FF0ACFC61
:1003C000E8E70022002108480FF0A6FCE2E7094B0D
:1003D000019301230093064B074A3100280011F0D6
:1003E000EFFDC3E700BB0110882200200CBB011009
:1003F00084BB011014BB011018BB011070B50600BE
:100400000C001500002932D0002821D003688B424F
:100410001ED10021200005F0F9F900220021200062
:1004200005F02AFA0021200005F002FA0021200040
:1004300005F0F0F90021200005F008FA200005F091
:100440003FFD011E0AD1300012F098FA280070BD5D
:10045000084B094A5221094810F052FC084812F092
:100460006FFC200005F05AFB0D256D42EBE71000F4
:10047000EDE7C04688BB01106CC20110B4BB01108F
:1004800000BC0110F0B5DE4657464E464546E0B585
:1004900083B004000E00151E39D0002840D0026839
:1004A0008A423DD12989002900D17FE01A0068489D
:1004B00012F046FC08239846A0442B891A1C7F2B77
:1004C00000D97F2292B200234146280004F0CAFDE1
:1004D000032241465F4815F0B9FE002862D10C2383
:1004E0009946A1443F21484615F022FE071E1ED022
:1004F0000378002B1AD02021484615F019FE7B1CEA
:1005000000223A7000285CD002701F000FE05248B1
:1005100012F0E6FB002231002000FFF76FFF49E0F8
:100520004E4B4F4A9D214F4810F0EAFB002788238D
:100530009B46A344083B5B005A4639004846FFF7F8
:1005400009FFC6235B009A46E0503A0049464648F8
:1005500012F0F6FB5346E158444812F0F1FB5346C3
:10056000E158FF292FD8002942DD0091C823404AD5
:100570008021404611F024FDC4235B00E0507F2819
:100580002BD8002363608933FF33E25A00234146AE
:10059000300007F0C3FF071E3DD1C6235B00E258C1
:1005A000002A42D12989300005F0D4F8280004F04F
:1005B0003FFB002003B0F0BCBB46B246A946A046B4
:1005C000F0BD1F00B3E72B4812F0BAFB0F225242D6
:1005D00031002000FFF712FFECE70100264812F07F
:1005E000AFFB0F22524231002000FFF707FFE1E787
:1005F000C8235B00E0580CF07DFA03001F4A8021FD
:10060000404611F0DDFCC4235B00E05041461C482D
:1006100012F096FBB5E701001A4812F091FB3A0080
:1006200031002000FFF7EAFEC4E792B200235946EA
:10063000300007F073FF071EB4D00100124812F01B
:100640007FFB3A0031002000FFF7D8FEB2E7C0463A
:1006500058BC011074BC011020BC011034BC011046
:1006600088C20110B4BB011078BC011088BC011015
:10067000B0BC011094BC011010BD01102CBD0110C4
:1006800060BD011074BD011094BD011070B505006E
:100690000C000B000D3300D170BD044812F050FB6C
:1006A000220029682800FFF7A9FEF5E7B4BD011074
:1006B00070B504000D00044812F012FB002229005E
:1006C0002000FFF79BFE70BDCCBD011070B5060089
:1006D0000D00140011000D4812F032FB73689C46A7
:1006E00064447460C4235B00F358C6225200B258BD
:1006F0009B189C4201DA002070BD054812F0F0FA08
:10070000002229003000FFF779FEF5E7E0BD011077
:10071000F4BD011010B50C00CB68002B08D00848C0
:1007200012F0DEFA0CF0F6FAE36801221A7110BD3D
:100730009A21044B044A4900044810F0E1FAC046EB
:1007400014BE011000BE011054C20110B4BB011050
:1007500010B5041E0CD0002012F006FB642801D056
:10076000442804D1E06803685B6A0549984710BDD6
:100770004021044B044AFF31044810F0C1FAC0463E
:10078000C40E002024BE011040C20110B4BB0110F1
:1007900070B582B015001E00134A144BD35C022BB7
:1007A00014D00023F35C9908032211401B09880030
:1007B0000F4A825801950801C01880000D4C00595D
:1007C00000900D4812F0BCFA002406E07388E9E7B7
:1007D000315D0A4812F0B4FA0134AC42F8D30A2071
:1007E00012F020FA02B070BD882200209E0900009D
:1007F000B80E0020B80D00202CBE01105CBE011008
:1008000070B506000C00151E26D1002924D018480A
:1008100012F066FACA214900012012F09DF8011E6B
:1008200020D004600836C8235B00C650200004F0C6
:10083000EDFF1049200004F0FBFF0F49200004F0F9
:10084000E9FF0A220D49200005F016F80C492000A6
:1008500004F0FCFF280070BD0A4812F041FA06209F
:100860004042F8E7084812F03BFA01204042F2E724
:1008700078BE0110CD06001085040010B1060010EE
:100880008D06001064BE01108CBE011070B505000D
:100890000E0050211A4812F053FA2E2005F06CFA7F
:1008A000041E19D05022174904F056FE002818D112
:1008B0000121200004F01CFF2860002817D0290027
:1008C00004F0A4FF1049286804F0CEFF31000F485F
:1008D00012F036FA012070BD0D4812F001FA002026
:1008E000F9E750210B4812F02BFA0020F3E70A48F1
:1008F00012F0F6F9200005F0E3FA0020EBE7C0461D
:10090000B0BE011068FC01100108001014BF0110F6
:10091000CCBE0110E4BE011000BF011070B59AB04A
:1009200012F01AFA1021012012F016F8041E41D01C
:100930000CF044FA002841D10CF012FAE060244D8A
:10094000EC600CF00DFA0368DB6929009847210080
:10095000204812F049FA204E204A214930000CF07C
:1009600083F9204BA360204B19932500083519AA61
:10097000290006A800F030FA290004A800F03EFB88
:1009800031002000FFF782FF00281DD001AA174B7D
:1009900023CB23C200232371154A012115480FF0F0
:1009A000F9F9144A88231B010121D154C82002F00F
:1009B00095FBF6E7104812F093F902E00F4812F0A9
:1009C0008FF901201AB070BD0D4812F089F9F8E7CF
:1009D000C40E00205107001090BF01100400400019
:1009E00084BF0110C0A80401FFFFFF0034C2011042
:1009F000910700108822002050BF01106CBF011029
:100A00009CBF011030B50400002303E0A218527807
:100A100002329B189A225200934209DA1A00E01817
:100A2000E55CFF2D02D08D42F0D102E0002000E015
:100A3000002030BD0368197001215970D91C9A70CB
:100A4000016070470368197004215970110E997084
:100A5000110CD970110A1971991D5A7101607047F2
:100A600070B50500140002681170961C54702200C5
:100A70001900300011F094FF34192C6070BD000093
:100A8000F0B5D6464F464646C0B584B00700894605
:100A900092461C000CAB40CB1B88984680235B021F
:100AA0009C4200D31F4CA022A1B29200362004F039
:100AB000FDF8051E33D022005146406811F070FF4A
:100AC00033063202FF2109040A401343320AFF2190
:100AD00009020A401343320E134303934B46002B83
:100AE00013D038680093434603AA290008F0D2FFC8
:100AF0000600280004F09CF8002E0ED1200004B05F
:100B0000E0BCBA46B146A846F0BD3868434603AAE1
:100B1000290009F001F80600EBE73000EFE70C20B0
:100B20004042ECE7FFFF000070B504000E00150026
:100B300009F09CF82060002805D03200290009F057
:100B400067F8002070BD0C204042FBE710B50A009A
:100B50000068024908F082FE10BDC04668FC011022
:100B6000F0B5DE4657464E464546E0B5904CA544A6
:100B7000060014001289F22A0BD8200004F058F85D
:100B800093239B009D44F0BCBB46B246A946A046B9
:100B9000F0BD89220023920009A9200004F062FA26
:100BA000F228EAD909AB02221A70023231000DA8EC
:100BB00011F0F6FE44AB089345A808903521FFF7E5
:100BC00021FF0028D9D08378012B00D1A4E0032B8A
:100BD000D3D1322145A8FFF715FF051ECDD0023035
:100BE0000322310014F0C8FF0028C6D16F793D0000
:100BF000103DEDB2072DC0D86B1CDB009846B04409
:100C0000062210A9404614F0B7FF00280BD0062298
:100C10006849404614F0B0FF0028AED1062210A962
:100C2000404611F0BDFE02F00DFB002900DAB4E0F1
:100C300000D1B8E0FA229200002311F059FA5E4B7D
:100C40009C466044000C0135ED007519E88009AD43
:100C5000EF740522352108A8FFF7ECFE297F6A7F93
:100C6000AB7F9B46E87F2027EF5D2123EB5C9C4612
:100C70002B7C98466B7C9946AB7CED7C0695059366
:100C80004B460493434603936346029301970090B7
:100C90005B464A4812F054F84FE0494B494A3F211D
:100CA000494810F02DF8FA21890011F0E3F94B467C
:100CB000181A2AD40137072F33DC7D1CED00751973
:100CC000062210A9280014F057FF002828D0434618
:100CD000082BEFD106223749280014F04DFF0028D9
:100CE00000D1B8467B1CDB00F318DB881B04374AB5
:100CF0001A43914602F0A6FA0029CEDBD3D0FA229D
:100D00009200002311F0F4F9D1E706220021280017
:100D100011F040FEB846CDE7002708239846CAE701
:100D2000B8464346082B00D127E7103309AAD374ED
:100D30000222352108A8FFF77DFE33000422362168
:100D400008A8FFF78DFE331D0422012108A8FFF734
:100D500087FE33000422032108A8FFF781FE330039
:100D60000422062108A8FFF77BFE194A332108A8B0
:100D7000FFF768FE089B5A1C0892FF221A70154B59
:100D8000596809AA089B9B1A3000483044250195F0
:100D9000453D0095FFF774FEEFE6094B094A3F21F8
:100DA00009480FF0ADFFFA21890011F063F946E719
:100DB000B4FDFFFF4CC30110005C260500C3011009
:100DC00098C2011054C30110B4C20110FFFF00000B
:100DD000805101007835002070B504000B68036075
:100DE0001368436008304022002111F0D3FD250034
:100DF0004835064A21002800FFF796FE002800D05B
:100E000070BD43212800FFF7A1FEF9E7610B001038
:100E1000F8B5CE46474680B50700884614001E0048
:100E200008AB1B88994680235B029A4200D3154C7D
:100E3000A022A1B29200362003F038FF051E15D083
:100E400022004146406811F0ABFD38684B46320045
:100E5000290008F061FE0600280003F0E9FE002EDC
:100E60000AD12000C0BCB946B046F8BD064811F012
:100E700037FF0C246442F4E734003100034811F0DA
:100E80005FFFEEE7FFFF00006CC3011098C3011085
:100E9000F0B5D64600B5D0B002901600039356AB1D
:100EA0001D8896220023520005A9300004F0DAF8CC
:100EB00004000B2806D8300003F0BAFE50B080BC06
:100EC000BA46F0BD05AF788802F024FE8246B888A5
:100ED00002F020FE5346DB0B9BB2002BEBD15346B6
:100EE000DB0A1B07E7D10028E5D0381908AF3AE044
:100EF000013708ABFB1AFF2BDDDCC0233B71B43B91
:100F00007B710024BC710B3BFB713C727B72BC7229
:100F1000FC723C733B337B73BC7338001030383B3E
:100F2000FB73029B191D042211F03AFD1422924614
:100F3000BA44114802F0EEFD05AF7880012002F0BE
:100F4000E9FDB880012002F0E5FDF8803C817C815C
:100F500039005246D21B0095039B0298FFF758FFB9
:100F6000A9E701317F188742C3D239780029BFD061
:100F70003F29F6DD9FE7C0468084000070B504007D
:100F80000E00150008F072FE2060002805D0320027
:100F9000290008F03DFE002070BD0C204042FBE718
:100FA00030B583B014000B060A02FF252D042A4039
:100FB00013430A0AFF252D022A401343090E194341
:100FC00001910068220001A908F048FC002801D125
:100FD00003B030BD02002100044811F0B1FE044B03
:100FE000044A372104480FF08BFEC046B8C30110F5
:100FF000DCC3011030C40110E4C3011070B504005B
:101000000D00084A0100FFF7B9FF002800D070BDAD
:10101000352200212000FFF7C3FF0028F7D12B68FD
:101020006360F4E7910E001010B5064B8B4202D1BD
:1010300008F046FA10BD044B044A182104480FF08A
:101040005FFEC046E80E002040C40110F0C401104D
:1010500060C40110F8B50400204B994212D101235D
:101060000B7208F057FA0500431C11D11C4B18688D
:1010700059681C4B9860D96023685B691949200046
:101080009847F8BD184B194A1D2119480FF038FE32
:1010900002F0D8F806000F1E10DBFA22920000239F
:1010A0002800002111F0B8FB36184F41002F0BDB50
:1010B000002F0DDB0B4B9E60DF60DDE70D4B0E4A12
:1010C0003F210E480FF01CFE012676420C4FEFE741
:1010D000084B094A3F2109480FF012FED40E0020A8
:1010E00058D20110E80E0020A8C4011008C5011054
:1010F00060C4011098C20110D8C40110B4C201101C
:10110000FFFFFF7F10B50400094B1B78002B08D0B0
:10111000084901230B722368DB69200098470120EE
:1011200010BD02F0E5FC024B01221A70F0E7C04648
:101130002AE20020D40E002010B5040003689B6949
:101140000349984723681B6A02492000984710BD4D
:10115000E80E0020D40E00200020704770470000E9
:1011600010B502F06FF8002906DB0BD0FA229200CE
:10117000002310F0BDFF10BD054B064A3F21064875
:101180000FF0BEFDFA21890010F074FFF3E7C046AE
:1011900098C20110D8C40110B4C20110083000E098
:1011A00018000368002B03D08B42F9D1002002E025
:1011B00001600B6001207047083000E018000368F0
:1011C000002B05D08B42F9D10B680360012000E0B1
:1011D00000207047043000E018000368002B03D0A3
:1011E0008B42F9D1002002E001600B6001207047C2
:1011F000043000E018000368002B05D08B42F9D1C1
:101200000B680360012000E000207047F8B506007D
:101210008068002833D002F015F8002906DB0400AE
:101220000D0008239C46B44400220CE0154B164ADE
:101230003F2116480FF064FD154B164A422116480F
:101240000FF05EFD9C4663461B68002B12D0200009
:1012500029009E68DF68801BB9410029F2DB340059
:101260003D000E490A684968724079400A43E3D05C
:101270006246E7E7002A03D0106803681360F8BDF0
:101280001000FCE798C201109CC50110B4C2011007
:101290001CC50110B4C5011040C5011058D2011081
:1012A000F0B583B0104B5C681B68009301948368B1
:1012B00004E0DC689B68009301940B00002B0CD0C9
:1012C0001968009C019D9E68DF68A41BBD41002D2C
:1012D000EFDCF2D1002CECD1EFE7009B019C036125
:1012E000446103B0F0BDC04658D2011070B506008D
:1012F0000D0002E04B68280098472800FFF786FFA2
:10130000011EF7D16C6800E02468002C09D0237A14
:10131000002BF9D00023237221002800636898472E
:10132000F2E72800FFF7BCFF2B696C69336074603B
:10133000300070BD034B1B6802201840431E9841CB
:10134000C0B2704700C0064010B5104A104B1218CA
:101350004B419900900F0843990F504059400D4A56
:101360000D4B11F059FA03004A01C00E1043CA0E8A
:1013700058405140094A0A4B11F04EFA03004A0006
:10138000C00F1043CA0F5840514010BD157C4A7F12
:10139000B979379EB9E5E41C6D4758BFEB1131139D
:1013A000BB49D094F0B5C64600B584B002000B002E
:1013B00013498C461BE0614601C900908C46002110
:1013C0000191910E9F010F43960100980199801998
:1013D000794102900391110C1D040D4314040298ED
:1013E000039900196941801A994102000B000549CF
:1013F0008C45E0D91000190004B080BCB846F0BD9F
:10140000001C0420FF1F0420F0B5CE46474680B5DF
:1014100083B08046036844680093019403008068A9
:10142000D96801E001F00EFF009C019D23002B43D1
:1014300002D103000B43F5D0009C019DA60FAB0029
:101440003343A2002E002500AD185E416B0E994675
:10145000F3019C464B46624613431F00730EEA019C
:1014600013431E005B0F9C46FB0064462343F200BF
:1014700092197B41009C019D60406940260A2F061D
:101480003E432D0A009C24062C43444035004D4029
:10149000070C0E043E4307047C407540464634600A
:1014A00075604C01C50E2C434001C90E0843B46061
:1014B000F0601000190003B0C0BCB946B046F0BDE2
:1014C000F0B5DE4657464E464546E0B583B001903E
:1014D000574B9B69DB0410D5564BDA6BE023134066
:1014E000402B0AD0EFF305839846019B002B0AD0CE
:1014F00000239946002400258AE04F4B4F4A812162
:101500004F480FF0FDFB4F4B4C4A86214C480FF0E3
:10151000F7FB4D4B1868596801F036FDEFF3108664
:1015200072B64A4B1B68002BFBD0BFF35F8F464B54
:1015300019685A688A4516D0BFF35F8F434B002263
:101540001A6086F310885B46002B5ED13E4B1A680A
:1015500092465F684346002BDBD03B4B18685968C6
:1015600001F07CFEDAE7BA42E6D12000290000193A
:1015700069412F4BDA690123134003431C000D001E
:1015800001F060FE02000B1E23DB0A20002112186E
:101590004B41002B23DB002B25DB2B490A604B60E2
:1015A00001994B1E4B452DD1294A20235B42CB1874
:1015B0001FD4116899400B00126801998A40224398
:1015C0002B4314001D00224B1C605D6001239B46D1
:1015D000B2E7204B204A3F2120480FF091FB012227
:1015E00052421F4BD7E71B4B1B4A3F211B480FF0B2
:1015F00087FB202301981B1A1168D9405368834048
:101600000B43D9E701239B4696E701239C46E1441F
:10161000019B994502D200239B4697E720002900B1
:1016200003B0F0BCBB46B246A946A046F0BDC046DA
:101630000000064000800040E4C5011014C70110FE
:10164000ACC6011044ED0110681B0020300100D031
:10165000101A002098C20110FCC60110B4C201107B
:10166000FFFFFF7F10B588B03B4C20686168FFF733
:1016700099FE20606160FFF767FE049B5840059B60
:10168000019359400490059102A800F011F90298C5
:101690000399FFF759FE069B01935840079B01935E
:1016A0005940069007914020FFF70AFFFFF74CFED4
:1016B000049B5840059B019359400490059101F00B
:1016C000C1FDFFF741FE069B01935840079B019324
:1016D000594006900791EFF3108472B61F4B1B68B8
:1016E000002BFBD0BFF35F8F1D4B1B78002B24D149
:1016F000032B09D85A1CD2001A498C4662445268FE
:101700001F2A03D00133F3E701235B425A1C1DD08B
:10171000DBB2154A13700133DB00124A944663446E
:1017200005225A6004A8FFF76FFE102204A90F4893
:1017300011F036F90A4B01221A70BFF35F8F074B85
:1017400000221A6084F3108808B010BD084B094AC3
:10175000E92109480FF0D4FAF8190020300100D02F
:1017600034E200200000034025E20020001A00209F
:10177000F0C6011034C70110ACC6011070B586B0B8
:101780003E4B1B78002B00D16EE010223C4902A892
:1017900011F006F93B4B1C78E4B201F053FDFFF762
:1017A000D3FD029B5840039B019359400290039143
:1017B0000120FFF785FEFFF7C7FD049B019358400A
:1017C000059B01935940049005912F4B1A78531CA7
:1017D000DB002E4958582E4B984248D00021FFF785
:1017E000B3FD029B5840039B019359400290039123
:1017F000EFF3108672B6274B1B68002BFBD0BFF3AC
:101800005F8F204B1B78DBB2A34213D01C4B029995
:101810001A685140039A019258684240029103921B
:101820009A68DB68049901914A40059901914B40FF
:101830000492059302A8FFF7E7FD05000C001022B3
:1018400002A90F4811F0ACF80E4A13780133DBB24D
:101850001370BFF35F8F0F4B00221A6086F310885E
:101860002800210006B070BDFFF7FCFE8DE70132B5
:10187000D2000B000021D150B0E7C04634E2002076
:10188000001A002026E2002025E20020000003408C
:10189000FFFFFF00300100D010B5FFF76FFF10BD54
:1018A00010B5024800F03CF810BDC0468CDF0020A7
:1018B00010B50822014911F073F810BD8CDF00202B
:1018C00010B5002901D000230AE0114B114A1F3145
:1018D00011480FF015FA00240DE03732C2540133DD
:1018E0004A1E9A420FD90F2B0DD85A080B4CA25CF6
:1018F000DC07F0D40424224114000F222240092ADC
:10190000EBDC3032EAE7C0180023037010BDC0469C
:1019100044C7011098C701104CC701108CDF00208C
:1019200070B588B0040004AD002604960922002199
:1019300005A811F02FF800960922002101A811F046
:1019400029F84B232B700D22694628001AF048F81D
:10195000002304E05A1D69468A5CE2540133072BD8
:10196000F8DD08B070BD0000EFF3108072B6034BD5
:101970001B68002BFBD0BFF35F8F70472C0100D09A
:10198000BFF35F8F024B00221A6080F3108870470C
:101990002C0100D0F8B506000C001500FFF7E4FF9D
:1019A000E308F718F15C07222240012393400B4221
:1019B00005D1DBB20B433B70FFF7E2FFF8BD21001E
:1019C00028000FF037FAF0B583B00600019114003B
:1019D0001F00FFF7C9FF00E00134BC420CD8E30848
:1019E000F518F35C0721214001228A401A42F3D105
:1019F000D2B21A432A7001E001246442FFF7C0FF0B
:101A0000002C02DB200003B0F0BD019B002BF9D0BD
:101A100008980FF00FFA000070B505000C00FFF7F2
:101A2000A3FFE308EE18EA5C07210C400123A34062
:101A3000134204D09A433270FFF7A2FF70BD034BEC
:101A4000034A2C3103480FF05BF9C04628C9011046
:101A500090C9011048C90110002307E0054A9A18EF
:101A60009200BFF35F8F0021116001331F2BF5D966
:101A70007047C04640000034054A1078431CDBB272
:101A80001370172B02D9130010221A707047C0462A
:101A9000000F002000B583B00100044B00931F230A
:101AA00018220348FFF78FFF03B000BDA0C9011043
:101AB0004C22002010B5010018231B881422108826
:101AC000984710BD10B5010018231B8816221088F6
:101AD000984710BDF0B5C64600B507000E000025BA
:101AE0000123984600E00135B5420AD2AC003C190A
:101AF0002068FFF7DFFF20600028F4D1002398461C
:101B0000F1E7404680BCB846F0BD0000F8B5DE46BF
:101B100057464E464546E0B505000F0092460A9AE4
:101B2000934250D31A0E91461E020A9A00233000A7
:101B3000494610F0DDFA80466C006419A400304B71
:101B40009C4664446368834200D260602B1FDBB212
:101B50009B46012B3DD9C0239B01234380221201C8
:101B60001A60AB00274A9958002907D0506910F035
:101B700081FA431C5800C0180338FDD253465A015D
:101B800023685A40E0231A4080235B0123431A60F4
:101B90005A46012A28D980239B012343802212011F
:101BA0001A6043466360424600233000494610F005
:101BB0009FFAAD00134B58510120F0BCBB46B24612
:101BC000A946A046F8BD104B104A332110480FF02B
:101BD00097F8012FBFD1C0239B01234303221A6032
:101BE000A368DB07FCD5C9E72168794003220A40D6
:101BF0001A60A2680123BB401342FAD0CBE7C0466B
:101C00000080004050220020BCC901101CCA0110F5
:101C1000D0C9011030B583B00C2001F0E3FEFFF70E
:101C200089FB00280DD0002304E099002D4A2E489E
:101C300088500133092BF8D92A4B2C4A5A6203B039
:101C400030BD2B4B00229A6701F03EFF294B012249
:101C50001A60274B5B6C012BFBD1274B03221A60C8
:101C6000234B9B6B012BFBD1013300930433234A9D
:101C70000121234801F026FE05230093214A01217A
:101C8000214801F01FFE214B009300220221042075
:101C9000FFF73CFF1E4D00952B000022012105207F
:101CA000FFF734FF104C009423000022002107208E
:101CB000FFF72CFF00942300002200210820FFF7EB
:101CC00025FF0A4B00932300002200210920FFF783
:101CD0001DFF00952B00002200210620FFF716FFB4
:101CE000ADE7C04650220020006CDC021BB70000AC
:101CF000008000403CB0004030B00040002F6859E8
:101D000000800240008C864700C00240001BB700E4
:101D1000405973078000014BC05870475022002083
:101D200010B58300084A944663441C684022624010
:101D3000C02414408022520113431C60C000034B96
:101D40009C466044416010BD04C001400040014019
:101D500080000B4B9C46604400290DD00823002ACC
:101D60000CD004221343026853400C2213408022FB
:101D700052011043036070470023F0E70022F1E7AF
:101D800004C00140002909D08000094B9C466044F2
:101D900080239B0118430223036070478000044B9B
:101DA0009C466044C0239B01184302230360F4E770
:101DB00004C0014070B5D0231B061B689D00094C70
:101DC0002C59204207D19B002043064C18510D206E
:101DD00000F042F970BD044B044ACC2104480EF0D7
:101DE0008FFFC04678DF00202CCA0110F0CA011016
:101DF00058CA011010B50400D0231B061B689B00B5
:101E00000A4A9B5818420BD00D2000F03FFAD0230D
:101E10001B061B6805499B005A58A2435A5010BD27
:101E2000034B044AD62104480EF06AFF78DF0020F5
:101E3000A0CA0110CCCA011058CA011007230340E0
:101E40009B00C00899403C308000014BC150704756
:101E500000400140F8B507000C0016001D00FFF718
:101E6000EDFFFB089B00ED18072038408000844000
:101E7000002E04D080239B011D432C60F8BDC0239D
:101E80009B011D432C60F9E710B5D0231B061B688E
:101E9000002B03D0024BFFF7DDFF10BD014BFAE72B
:101EA000304101400041014010B501238340D02260
:101EB0001206936293610521FFF732FF10BD000007
:101EC000074B9B68103080001950BFF35F8FBFF342
:101ED0005F8F044B0021196082F310887047C04661
:101EE00000ED00E0240100D01F23181A7047000005
:101EF00010B5091A081F0A4B9C466144094A9142D1
:101F000008D8C30706D440104005400D064B1843BF
:101F100080B210BD054B064AA32106480EF0F0FE24
:101F2000FC070000FE0F000000E0FFFF24CB0110C3
:101F300090CD011054CB011010B5091A04394C088A
:101F4000090B08D14905490D064A11430180064B8A
:101F50002343438010BD054B054AAB2105480EF0D5
:101F6000CFFEC04600F0FFFF00F8FFFF98CB011046
:101F700064CD011054CB011001238340034A106843
:101F80001840431E9841C0B27047C04600E100E0CF
:101F9000002904D0034B1860034B18607047034BB3
:101FA0001860FBE780E200E000E100E080E100E093
:101FB00010B5012383401800FFF7EAFF10BD0000B1
:101FC00001238340014A13607047C04600E200E0ED
:101FD000024B9B6810308000C058704700ED00E055
:101FE00010B5FFF7F5FF002805D0054BC01A2F28C4
:101FF00003D8012010BD0020FCE70020FAE7C0460E
:10200000040F002070B504000D00EFF3108672B6C7
:102010000C4B1B68002BFBD0BFF35F8F2000FFF73A
:10202000D7FF094B984201D0A84205D132002900C0
:102030002000FFF745FF70BD044B054A8621054887
:102040000EF05EFE240100D0CD010010A8CB0110DF
:10205000C4CD011054CB0110F0B5DE4657464E46B4
:102060004546E0B589B0814601911500EFF3108A2D
:1020700072B6744B1B68002BFBD0BFF35F8F724BA3
:102080000027DF57002F40DB7C00E419A4006F48D5
:1020900024180622A2566C4B1A706D4B9A684B4658
:1020A00010339B00D35898461E001B1A2F2B38D98B
:1020B000684B98452FD105AE674B33807B009B461C
:1020C000D8198000614B9846404402306349FFF7BD
:1020D0000FFF7080624BB380FF23B371F571019BDA
:1020E00007935F44BF0047440ECE0EC701231C4335
:1020F000A046524641464846FFF7E2FE09B0F0BC12
:10210000BB46B246A946A046F0BD564B564AD7211B
:1021100056480EF0F5FD564B534ADE2153480EF05B
:10212000EFFDC04340440C210FF0A4FF002912D161
:1021300001239E43B34633000026DA79AA4211D91F
:102140000621595600290CDB4A00521892001E0045
:102150003E4B9B18F1E7474B434AEA2143480EF0B8
:10216000CFFD1E00002E3AD005AB434A1A80813ABB
:102170005A800623F3560293002B17DA3F4805AB2B
:102180009B469880029A9A71DD71019A0792301DE0
:102190002100FFF7ADFEB080B7717B00DB199B001B
:1021A0002A4FFF185B4607CB07C7A2E77800C01984
:1021B0008000264BC0180430321DB388D90A1C2970
:1021C00007D15B055915023149005118FFF790FE00
:1021D000D5E72B4B2B4AB12124480EF091FD05AEDB
:1021E0001D4B33807B000293D8198000174A90461C
:1021F000020042440392901C1849FFF779FE708058
:10220000039A101D5946FFF773FEB0801E4B5A46C5
:102210004146521A524153431B0DB371F571019A55
:102220000792029B9C466744BF0047440ECE0EC7F0
:10223000114B5A461380813B538001231C43A04617
:1022400057E7C046240100D02DE20020040F0020F3
:1022500000ED00E0CD01001000A1FFFF340F0020D1
:1022600001BDFFFFE0CB0110ACCD011054CB01103C
:1022700008CC011030CC01100148000001BD000065
:10228000A4CC01109CCD0110AAAA0000F0B5CE4646
:10229000474680B583B006000D00EFF3108872B694
:1022A000564B1B68002BFBD0BFF35F8F544B9A68D3
:1022B00034001034A300D758524B9F4207D0AF428E
:1022C00000D198E00197504BFB1A2F2B09D94246B9
:1022D00039003000FFF7F4FD03B0C0BCB946B0468A
:1022E000F0BD3000FFF748FE814600213000FFF7C7
:1022F0005FFEBFF35F8FEFF30581002901D08C42B1
:1023000011D10123019C9C430022A368AB4212D04F
:102310000622A256002A0DDB53009B189B002200C8
:10232000394CE418F1E73621384B394AFF31394846
:102330000EF0E6FC2200AB4256D106256557002D73
:1023400038DB6B005B199A002F4B9B189A68A260D0
:10235000DA79E27106229A56A2719B795BB2002B60
:102360000FDA2D48A0806B005B199B00264AD3181A
:102370002A4A11789971157049463000FFF718FE06
:10238000A5E7201D6B005B199B001F4A9B181A1DB7
:102390009B88D90A1C2907D15B055B1502335900BC
:1023A0005118FFF7A5FDDDE71D4B1E4AB121194865
:1023B0000EF0A6FC002912D1002A0ED0FF23937143
:1023C000194B9380154A1378A371184B0E49641A60
:1023D000644163431B0D1370CEE70A4FF2E7201DE3
:1023E0001349FFF7A9FDC7E76A21124B084AFF31DD
:1023F00008480EF085FC034F69E7C046240100D071
:1024000000ED00E0CD010010040F0020BCCC011055
:102410007CCD011054CB011001BD00002DE2002045
:10242000A4CC01109CCD011001BDFFFFAAAA0000A1
:102430003E0F0020DCC3011010B5032304009C43B1
:10244000064A9446644422681840C000FC33834026
:102450009A43130081400B43236010BD00E400E069
:1024600070B5012101432E4BCB1A2F2B28D8EFF347
:102470000583002B2BD0EFF3108C72B6294A12681B
:10248000002AFBD0BFF35F8F274A0400244D641B52
:1024900064416243120D54B2244A92689B00D258A0
:1024A0008A421BD00022032A32D853009B189B007B
:1024B0001B49CB189B795BB2A3421FD00132F2E7D4
:1024C000C7211B4B1B4A49001B480EF019FC9221E7
:1024D0001A4B184AFF3118480EF012FC134A926842
:1024E0001749D150174B1A7882711C70BFF35F8F58
:1024F0000C4B00221A608CF3108870BD0D00530045
:10250000991889006918FF268E710F4A8A80E9E7B9
:10251000D1210E4B074A490007480EF0F1FBC04697
:10252000040F0020240100D0AAAA000000ED00E062
:10253000F0CC011048CD011054CB011018CD011082
:10254000CD0100102DE2002001BDFFFF24CD0110C0
:102550000022044B02E0044902C30132072AFAD9DF
:102560007047C04600E400E08080808010B5FFF72F
:10257000BBFC01000148FFF74FFA10BD39E2002013
:1025800000B583B00100064B0093052300220548E7
:10259000FFF719FA002801DB1F23181A03B000BD4A
:1025A0002CCD011039E2002070B504000E0015009A
:1025B000FFF762FA0100200000F006F8A680E5802F
:1025C000BFF35F8F70BD0000024B9C4661448900E1
:1025D000016070474000003410B50400FFF74CFA6A
:1025E00001002000FFF7F0FFFF232371BFF35F8F8F
:1025F00010BD10B50400FFF73FFA01002000FFF7FF
:10260000E3FFFF23237100236371BFF35F8F10BDCE
:10261000034B9C46614489000160BFF35F8F7047A4
:102620004000003410B504000120FFF733FA010028
:102630002000FFF7EDFF10BD70B505000C0008008D
:1026400000F000FF0949200000F040FEFFF714FAF7
:10265000074B9C466044800068602C75D0231B06A5
:102660001B786B75A400034BE55070BD7D290010ED
:1026700040000034ACCF00200A4B1A68EFF3108101
:1026800072B61368002BFCD0BFF35F8F054B1B683D
:10269000BFF35F8F00221A6081F3108840BF0020D3
:1026A000002170479CE1002010B5002922D003686A
:1026B0001B7B99421ED8174B9C46614409018368D5
:1026C0009C4661440C684968002A19D003681B7B4A
:1026D0009A4215D883680F488446624412019A18BA
:1026E00010685368020001208B4201D80ED00020F0
:1026F000C0B210BD084B094A3C2109480EF000FB4E
:10270000054B064A3C2106480EF0FAFAA242EFD8E1
:10271000EDE7C046FFFFFF0F58CF0110C4D10110F5
:1027200018CF011010B500291ED0037B99421BD889
:102730004B005B18033B0468A4466344002919D08E
:10274000002A1DD0914221D0002A25D0047BA2422C
:1027500022D8046850008018033820188170197836
:1027600000291FD11A7010BD104B114A6821114861
:102770000EF0C6FA104B114A6F310E480EF0C0FA37
:102780000F4B0E4A70210B480EF0BAFA0D4B0B4A54
:10279000712108480EF0B4FA044B054A6821054837
:1027A0000EF0AEFA41701A70DDE7C0467CCF011022
:1027B00030D2011098CF0110ECCF01100CD20110D3
:1027C000F8CF011004D0011070B506000D00140000
:1027D000002914D0002A14D0806873689847002814
:1027E00006D0220029003000FFF79CFF280007E0F8
:1027F0002A0021003000FFF795FF200000E01000C4
:1028000070BD0800FCE70000F0B583B00500009241
:1028100001930AAB1C780BAB1F78002C26D0036801
:102820005A7B944207D10123002B19D1002C3BD1B4
:10283000200003B0F0BD002C0CD01A7B944209D8C4
:102840001A6863001B19033BD3189B78002BEBD04D
:102850000123E9E73E4B3F4A68213F480EF050FA1A
:102860003E4B3F4A67213F480EF04AFA03689C7B83
:10287000002CDBD012D01A7B94420FD862001219C0
:10288000033A19688C46624451789973002900D143
:10289000D9730023937053701370C7E72C4B2D4AE4
:1028A00068212D480EF02CFA002C3AD02B681B7BA7
:1028B0009C4236D82C4BE3181B01AA68944663440B
:1028C000009A1A60019A5A60089A9A60099ADA6026
:1028D0002E68002C2BD030D0337B9C422DD8630047
:1028E0001B19033B32689446634400229A705A7065
:1028F0001A70717B22003000FFF766FF707384420C
:1029000000D095E7287D009A019B00F027FD061E68
:1029100001D0002F17D00C9B002B00D188E71E7030
:1029200086E7124B124A3C210E480EF0E9F9114B92
:10293000114AA52108480EF0E3F9054B054A682124
:1029400005480EF0DDF92868210000F03FFFE2E7BE
:102950007CCF011030D2011098CF01101CD0011093
:102960003CD2011018CF0110FFFFFF0F58CF01100C
:10297000C4D1011014CF011020D20110F0B5DE46F1
:1029800057464E464546E0B58BB009900023089364
:102990008200B54BD658370052E0B44BB44A3F21C1
:1029A000B4480EF0ADF9B44BB44A3C21B4480EF033
:1029B000A7F9002901D1002869D10021404600F083
:1029C000FBFEA04219D12A686B6806920793AB6898
:1029D0009846EB689A464346002B14D0002C18D03A
:1029E0003B681B7B9C4214D8631EFA68D35C089337
:1029F0001B0218433861002015E0A24BA24A8E2129
:102A00009F480EF07DF9A14B9F4A92219C480EF001
:102A100077F9994B9E4A412199480EF071F90023AC
:102A20009A46984600207B68BFF35F8F00221A60A9
:102A300086F310884346002B32D1002800D10CE1E8
:102A400000F000FC02000B1EA7DB00200021069016
:102A500007917868EFF3108672B601680029FCD000
:102A6000BFF35F8F396888464C7B002CD7D09AD053
:102A7000097B8C4297D8874965182D01B9688C4627
:102A8000654428686968801A9941002991DD2A689F
:102A90006B68099800F062FC00239A469846C2E7EA
:102AA000089B1B022343994651461800C047050066
:102AB0000E007A68EFF3108B72B6136859424B41DF
:102AC000D9B2002BF9D1BFF35F8F002E1EDB002E91
:102AD00046DD3B69002B47D04B456DD100F0B2FB82
:102AE00002000B1E6EDB52197341002B70DB002BB2
:102AF00072DB00210491013103910294514601914E
:102B0000414600913800FFF77FFE4CE03B69002B07
:102B1000DDD04B4514D1069A079B521BB341002BC5
:102B200014DB002B16DB0021049101310391029488
:102B300051460191414600913800FFF765FE32E0B1
:102B4000554B514AA1214E480EF0DAF8012252426B
:102B5000524BE6E7454B464A3F2146480EF0D0F837
:102B6000002E01D1002DB4D13B68002C50D05A7BEF
:102B7000944237D1012100294AD1DA7B002A4DD174
:102B80009A7B002A03D1DA7B002A5AD19C73DC732A
:102B9000002C5CD03B681B7B9C4258D8FA68013CF7
:102BA000135D0133135500233B617A68BFF35F8FD8
:102BB00013608BF3108843E7374B334AA421304826
:102BC0000EF09EF8294B2A4A3F212A480EF098F829
:102BD00001225242314B8AE7244B254A3F212548A6
:102BE0000EF08EF8002C0DD01A7B94420AD86200A9
:102BF0001219033A1868844662449278002ABAD0BF
:102C00000121B8E7264B274A682127480EF078F8BB
:102C1000264B274AF62124480EF072F8002A0AD0E3
:102C2000197B8A4207D851008A18033A19688C46E2
:102C300062445470A4E71A4B1A4A68211A480EF0ED
:102C40005FF81C4B1A4AFB2117480EF059F80A4B43
:102C50000F4A41210A480EF053F80BB0F0BCBB46B6
:102C6000B246A946A046F0BDACCF002098C20110E4
:102C700090D10110B4C2011058CF0110C4D101107D
:102C800018CF011044D00110A8D101105CD0011060
:102C9000E8D10110FFFFFF0F68D00110FFFFFF7F99
:102CA0007CCF011030D2011098CF0110A4D00110B8
:102CB000FCD10110C8D0011010B50C4B5B68002B83
:102CC00004D00A210A48FFF77FFC10BD074C2300FF
:102CD000084A1021206800F07FFC032000F0A6FACB
:102CE00003212000FFF7A8FCEBE7C0464C0F0020B3
:102CF0009CE10020A926001010B5064B5B68002B54
:102D000001D0044810BD044B044A5E2104480DF074
:102D1000F7FFC0464C0F0020DCD00110D0D10110CD
:102D200018CF0110F0B5DE4657464E464546E0B591
:102D30008BB0804616001F00149B9A46159B99463F
:102D400016AB1B789B461F2302AA944663440022BD
:102D50001A702BE0002809D042461268127B90427C
:102D600004D8421E4146C9688A5C41E0404B414A52
:102D7000412141480DF0C4FF07984CE0361BAF419C
:102D8000002F07DB002F11DA3C4B3D4A3F213D4825
:102D90000DF0B6FF012676423B4FF3E7374B384A3A
:102DA0003F2138480DF0ACFF002F4FDB43465A68F7
:102DB000EFF3108472B6136859424B41D9B20791B0
:102DC000002BF8D1BFF35F8F1F3302AA94466344F0
:102DD00004930023039302934B46019353460093BD
:102DE00032003B004046FFF70FFD031EB2D1020048
:102DF00041464968BFF35F8F00250D6084F310885A
:102E0000002B29D01F2302A98C4663441B78002B7A
:102E1000B2D112021043002B20D05B46002B1DD0F4
:102E20004946D04704000D0003000B431DD0002984
:102E3000A4DB00F007FA06000F1EAFDB36196F4166
:102E4000002FB1DA012676420F4FADE70B4B0C4A4B
:102E50003F210C480DF054FF012040420BB0F0BC64
:102E6000BB46B246A946A046F0BD0798F6E7C04665
:102E700058CF0110E8D1011018CF011098C20110ED
:102E800090D10110B4C20110FFFFFF7FF8B504001C
:102E9000002900D162E04268EFF3108572B6136832
:102EA00058424341D8B2002BF9D1BFF35F8FCBB268
:102EB0002268567BB3421BD10120002848D02069EC
:102EC00088422BD0090AC9B2002B2ED02068007B83
:102ED00083422AD8581EE668305C88422BD00020F6
:102EE0006368BFF35F8F00221A6085F31088F8BD16
:102EF000002B0DD0167BB3420AD85E00F618033EB5
:102F00001768BC466644B678002ED6D00120D4E7B8
:102F1000134B144A682114480DF0F2FE2C21134B78
:102F2000134AFF3113480DF0EBFE134B134A4121B6
:102F300010480DF0E5FE1900100000F047FC0028D5
:102F4000CED199210E4B0A4A49000A480DF0D8FE0D
:102F500023698B42C4D100232361C1E70020C6E767
:102F60007CCF011030D2011098CF011000D1011098
:102F700078D1011018CF011058CF0110E8D10110FD
:102F800024D10110407D7047F0B587B006000F00D6
:102F9000EFF30583002B1FD106246442E517A41923
:102FA0007D418D4202D803D1844201D900240025FD
:102FB000002D14DB0494059500F044F902000B1E6B
:102FC00013DBA41A9D41002D17DC14D0300039000A
:102FD00000F044F907B0F0BD23480DF02BFF234B60
:102FE000234A3F2123480DF08BFE204B204A3F21EE
:102FF00020480DF085FE002CE8D0FFF77DFE002371
:10300000029301931C4B0093049A059BFFF78AFEE1
:10301000002818DADAE7002300E00023002BD5D1DE
:10302000164B1A68EFF3108172B61368002BFCD0B0
:10303000BFF35F8F114B1B68BFF35F8F00221A60D5
:1030400081F3108820BF0499059A0D4B5B6A9A4260
:10305000E3D80B48806A884203D29A42DBD001232E
:10306000DCE70123DAE7C04628D1011098C201103D
:1030700090D10110B4C20110792600109CE100200B
:103080000040054070B504000D0000F0DBF80200C0
:103090000B1E0ADB200029008018594100290ADB99
:1030A00000290CDBFFF770FF70BD084B084A3F2179
:1030B00008480DF025FE012040420749F0E7034B88
:1030C000034A3F2103480DF01BFEC04698C2011081
:1030D00090D10110B4C20110FFFFFF7F10B5FA229A
:1030E0009200002300210FF097FBFFF7CBFF10BDEC
:1030F00070B584B005000C00EFF30583002B1ED1E2
:10310000FFF7FAFD002302930193224B00932A005C
:103110002300FFF707FE061E23DD20BFFFF7ECFDAF
:103120003100FFF7B3FE1C4B5B6A9C422DD81A4A54
:10313000926AAA422CD29C4225D0012026E0164B4E
:103140005B6A994209D8144A926A824207D299422C
:1031500001D001201AE0002018E0002016E0012034
:1031600014E00D4B5B6A9C4209D80B4A926AAA4252
:1031700007D29C4201D0012008E0002006E0002098
:1031800004E0012002E0002000E0002004B070BD57
:103190000120FBE7792600100040054070B5EFF3F1
:1031A00005801038EFF3108C72B61A4B1B68002B99
:1031B000FBD0BFF35F8F01221300834016494B639E
:1031C00016490B60164909780C00C440224214D0FD
:1031D000114A546A8200134D5259944206D3820018
:1031E000114C125999430E4B197007E00A4A031DFE
:1031F0009B0099589950002200E00022BFF35F8F96
:10320000044B002119608CF31088002A00D09047ED
:1032100070BDC046280100D0004005403C7005400C
:1032200038E20020B8E100201420002010B5010091
:10323000024A0348FEF7AEFB10BDC04660D2011043
:1032400027E20020044B5B6A034A906A1900536A24
:103250009942F9D17047C04600400540084B5B6A6F
:1032600001E0074B5B6A8B42FBD301E0044B5B6AD6
:103270008B4203D1024B9B6A8342F7D37047C0460F
:103280000040054070B504000D00FFF7DBFF0200B1
:103290000B0020002900801859418B4202D804D12C
:1032A000824202D901204042C117002902DBFFF708
:1032B000D5FF70BD024B034A3F2103480DF020FDAE
:1032C00098C201100CD30110B4C2011070B50400F3
:1032D0000D00EFF3108672B61B4B1B68002BFBD062
:1032E000BFF35F8F002D1CD02000FEF771FE174B3F
:1032F00083420BD019002000FEF784FE012120003C
:10330000FEF756FE0123A340114A1360A400114B9F
:10331000E550BFF35F8F0C4B00221A6086F31088D4
:1033200070BDA2000B4B0021D1500122A2400A49DE
:103330000B7893430B7005492000FEF7A7FF00218F
:103340002000FEF735FEE4E7280100D09D31001093
:10335000386005401420002038E20020F0B5DE4639
:1033600000B584B00400150001921E000293FFF71F
:1033700069FF03958E4202D84ED185424CD9EFF3B6
:10338000108B72B6274B1B68002BFBD0BFF35F8FEF
:10339000254A17780125A540EBB23B431370234B18
:1033A0005D63221D92000199D150A200204902982C
:1033B00050501B6A2B4212D11C4B1B6C2B4208D065
:1033C0000020BFF35F8F174B00221A608BF3108829
:1033D00023E0184B184AC52118480DF091FCFFF75F
:1033E00031FF8E4214D802D1039B834210D80E4B7A
:1033F0001B78BB420ED00D4B1D625D631F20044045
:103400000123A3400E4A1360074B1F701E38D8E7F4
:103410000020D6E70120D4E7012004B080BCBB46E1
:10342000F0BDC046280100D038E200200040054031
:10343000B8E1002084D20110F0D20110A8D201100E
:1034400080E200E0EFF3108C72B60B4B1B68002B90
:10345000FBD0BFF35F8F01238340084A1362084902
:103460000A789A430A70BFF35F8F034B00221A60F9
:103470008CF310887047C046280100D000400540FA
:1034800038E2002010B500291ED0037B99421BD8DA
:103490004B005B18033B0468A4466344002919D021
:1034A000002A1DD0914221D0002A25D0047BA242BF
:1034B00022D80468500080180338201881701978C9
:1034C00000291FD11A7010BD104B114A68211148F4
:1034D0000DF016FC104B114A6F310E480DF010FC28
:1034E0000F4B0E4A70210B480DF00AFC0D4B0B4A96
:1034F000712108480DF004FC044B054A6821054879
:103500000DF0FEFB41701A70DDE7C0467CCF011064
:1035100018D4011098CF0110ECCF011004D4011081
:10352000F8CF011004D0011070B506000D00140092
:10353000002914D0002A14D08068736898470028A6
:1035400006D0220029003000FFF79CFF280007E08A
:103550002A0021003000FFF795FF200000E0100056
:1035600070BD0800FCE7000010B500234373013371
:103570008373037BC3730123027B9A4214D9002B0C
:103580000CD0027B934209D85A00D218033A016842
:103590008C4662440133DBB25370EDE70B4B0C4AAF
:1035A00068210C480DF0ACFB002A09D0924207D8E4
:1035B000016853009A18033A8A180023537010BD0B
:1035C000024B034A682103480DF09AFB7CCF01109F
:1035D00018D4011098CF011010B5017342608360B8
:1035E000FFF7C2FF10BD000070B50400081E00D137
:1035F00070BD002934D0237B994231D84B005B1831
:10360000033B2268944663445A78002AF0D02DD0B8
:10361000237B9A422AD853009B18033B21688C468F
:1036200063445D7800215970002825D0237B98429F
:1036300022D843001B18033B21688C4663440021B9
:10364000597001002000FFF76FFF060029002000DD
:10365000FFF7CAFF020031002000FFF765FFC7E750
:10366000084B094A682109480DF04AFB054B064AF8
:10367000682106480DF044FB024B034A68210348C9
:103680000DF03EFB7CCF011018D4011098CF011033
:1036900070B505000C00160000292FD034D0037B34
:1036A000994231D84B005B18033B0268944663444F
:1036B0005A78002A2ED19A78002A31D11978FFF74A
:1036C00093FF0300002E0AD0EA7B002A2ED1AA7BAA
:1036D000002A03D1EA7B002A3BD1AC73EC73002BA8
:1036E0003DD1002C4FD02B7B9C424CD82B686100E5
:1036F0000C19033C1C190023637070BD254B264A2E
:10370000382126480DF0FCFA254B264A6821264828
:103710000DF0F6FA254B204A3A2120480DF0F0FA38
:10372000234B1D4A3B211D480DF0EAFA002A0AD01E
:10373000297B8A4207D851008A18033A29688C46A7
:1037400062445470C3E7164B164A682116480DF0C0
:10375000D7FA184B104A422110480DF0D1FA002B2D
:103760000BD02A7B934208D843001B18033B2A68DE
:103770009446634400229A70B3E7094B094A6821D2
:1037800009480DF0BDFA064B064A682106480DF0BF
:10379000B7FAC04624D30110F0D301102CD3011086
:1037A0007CCF011018D4011098CF01106CD30110F8
:1037B00094D30110C8D0011070B504000A00457BF5
:1037C0002900FFF765FF6073280070BD70B5040025
:1037D000002967D0437B8B420ED0002911D0037B98
:1037E00099420ED84B005B18033B0268D0188378CF
:1037F000002B0CD1002056E00121FFF7DDFF012056
:1038000051E0294B294A682129480DF079FA002B0B
:1038100020D0227B93421DD85A00D318033B226844
:10382000D2182568EB5C8B421AD0002B1BD0227B70
:10383000934218D85A00D318033B2268D218537801
:103840008B4216D0002BF0D11A4B1B4A6B211B4820
:103850000DF056FA144B154A682115480DF050FA30
:103860004378137007E0104B104A682110480DF0A0
:1038700047FA43785370002383704370012220007D
:10388000FFF706FF0200617B814205D02000FFF7B1
:103890004BFE6073012006E0094B074A712107487F
:1038A0000DF02EFA002070BD7CCF011018D401104D
:1038B00098CF011024CD0110D8D301102CD30110C2
:1038C000B8D30110F0B5C64600B504000E001700CD
:1038D0001D0037480EF0CEFB8046364BFA18364BAB
:1038E0009A4239D8010038000EF0C4FB0200103AA9
:1038F00098235B009A4235D86B1E062B38D8069B5E
:10390000013B062B34D83F09474537D32D04069B8E
:103910001A0315432368002B36DB284B9C4244D006
:1039200080225201264B1A60264B1A60264B9B6858
:1039300011009943FAD12660A060231DC022920194
:103940001A43212313602368002BFCDAE560082367
:10395000136080BCB846F0BD1C4B1D4A11211D48A8
:103960000DF0CEF91C4B1A4A19211A480DF0C8F96E
:103970001A4B174A1C2117480DF0C2F9184B144A6C
:10398000232114480DF0BCF922683F231340B342B1
:10399000C3D1A3681B051B0D8342BED1E368EE2291
:1039A000D2021340AB42B8D1D3E780229201B9E7EB
:1039B000001BB70080E84BD380F8A93200C002405A
:1039C00000E0004000F0004000C0004024D401109E
:1039D0004CD5011084D40110C8D40110E4D40110D6
:1039E00030D5011080239B000343014AD362704706
:1039F00000800540024B1A68024B5A607047C0466F
:103A0000943500200080054010B50200164B802040
:103A1000C0051860154B1648186000290AD0154BD0
:103A2000E021C9041960002A09D1124B8022120634
:103A30001A6010BD0C4BE021C9041960F3E7530173
:103A40009B1A9800801800010B4B186080235B04C0
:103A5000984202D3084B094A1A60FFF7CBFF054B87
:103A60008022D2051A60E4E700B00540082001403A
:103A7000FCFF010000A0054094350020FFFFFF007F
:103A800010B5030010000C4A8024E4051460002BDC
:103A90000DD001221343094A094CD461094C5C4002
:103AA0001462516293620021FFF7AEFF10BD034B19
:103AB0000022DA61F7E7C04600B00540008005400B
:103AC000D3C007B02D3FF84F064BAA2212011A604F
:103AD0002F22DA60044B054A1A60024B5B68002B08
:103AE000FBDA7047004002400060024000B0FA007C
:103AF00010B501F053FC00F0C5FB00F09DFD00F097
:103B000041FE05F093FD01F009FD00F018FA05F003
:103B1000C5FC10BD0302000A184380B270470306BB
:103B20000202FF2109040A401343020AFF2109028D
:103B30000A401343000E18437047000000280AD0C3
:103B4000C07A002809D1431C9B00054A9B58002BD2
:103B500004D0012002E0002000E000207047C046B1
:103B60000C2D002010B5FDF797FE80B2002301E078
:103B70000133DBB2032B0FD81A01D2181201074907
:103B80008A18927A022AF3D11A01D21812018A18DD
:103B900012898242ECD1E6E710BDC046142D002008
:103BA000F0B5D6464F464646C0B5060088460024C6
:103BB00001E00134E4B2032C23D8250063001B1973
:103BC0009B00314A9F58002FF3D063001B199B00C4
:103BD000D3181B7AB342ECD13001801900011030A8
:103BE0002A4BC0189246630099461B199B00534408
:103BF0005A684146B8474D44AD0000235246AB5089
:103C0000D7E7002301E00133DBB2032B1BD8B3421B
:103C1000F9D01A01D21812011C498A18927A022A84
:103C2000F1D11A01D21812018A18D07B32019219EF
:103C300012018A18D27B9042E5D133019B191B01F6
:103C4000CB180422DA7333019B191B010F4AD318D6
:103C5000DB7B032B04D9E0BCBA46B146A846F0BDD5
:103C60000B4C9B00185905F0DFFF084A30018319FF
:103C70001B01D318DB7B9B00002119518019000127
:103C800010180423C373E6E7DC2C0020142D002059
:103C9000CC2C0020F0B5D6464F464646C0B584B081
:103CA0008046030143441B01534AD318DB7A012B9E
:103CB00034D89B00514A9B58002B32D00401444415
:103CC000240110344C4BE418200012F091FAA02289
:103CD000123081B29200362000F0E8FF81460028C1
:103CE00000D185E001AD0C22002128000EF052FE2B
:103CF00043461B0143441B013F4AD3181889FFF771
:103D000009FF28800123AB70FF33AB800C22290010
:103D1000484601F0F3F9661E0C2737E038480DF0ED
:103D200089F80021FFF73CFF434618014044070192
:103D3000314BDF190023BB720024200004B0E0BC2B
:103D4000BA46B146A846F0BD0134E4B20136337834
:103D50002E2B01D0002BF7D1731B9BB29A463B1937
:103D6000284A934216DC22003900484601F060FAE6
:103D70007B1C9BB252462900484601F00BFA3C19C5
:103D8000A5B26F1CBFB23378002B09D001363500C5
:103D90000024DCE7484600F04BFF06246442CCE7F1
:103DA00000223900484601F043FA0235ABB28022C6
:103DB000520069460A804A80FC3A484601F0EAF916
:103DC0000D4943461B0142469A1812018A18D07BBE
:103DD000D37A9B00094AD21880000B4940583523FA
:103DE000494605F099FE0400484600F021FFA4E78B
:103DF00001246442A1E7C046142D00200C2D0020B0
:103E000058D50110FEFF0000CC2C002070B5040036
:103E1000000100190001414BC018032C20D82301D8
:103E20001B191B013D4AD3189B7A022B34D01AD898
:103E3000002B14D0012B00D06CE0FFF793FE374924
:103E4000220113191B01CB1818810220987200203F
:103E5000D87201251D7358732000FFF71BFF70BD3A
:103E60002F480CF0E7FF032B54D123011B191B0132
:103E70002A4A9B58002B07D0013B2201121912013C
:103E800026495350002BEAD120010419240123486C
:103E900004190023A372E2E723011B191B011F4A27
:103EA000D218137B013BDBB21373002BD7D1230154
:103EB0001B191B01194AD218537B0133DBB2537310
:103EC000042B09D022011219120114498A18137304
:103ED0002000FFF7DFFEC2E7FFF730FE00280DD01D
:103EE0000E49220113191B01CB18D87A0130D87260
:103EF000012018731A0000235373E9E70021200002
:103F0000FFF74EFE200104192401044B1C19002365
:103F1000A372A4E703480CF08DFFC046142D0020C7
:103F200070D501108CD5011010B5002404E02000DC
:103F3000FFF76CFF0134E4B2032CF8D910BD7047D1
:103F4000012800D97047002904D080000A68044B7A
:103F5000C250F7E78000034B1A68014BC250F1E7EB
:103F60000C2D002068FC011010B5FFF7DDFF10BD1F
:103F700030B583B06B460022DA8001231D00054076
:103F8000184206D0002904DD02786B46DA71013947
:103F90000130032213000340104209D0012903DD40
:103FA00003880239023003E0002301E008392000D1
:103FB00007290CDD0268D218934200D901320400AF
:103FC000083443689B189A42F0D90133EEE71A0C83
:103FD0001B041B0CD31803E002889B180239023023
:103FE0000129F9DC002902DD01786A4691716A46EF
:103FF00006321288D318180C1B041B0CC318180C9B
:104000001B041B0CC018002D05D003061B0C020A54
:10401000FF201040184380B203B030BDF0B583B02C
:104020000600019115001C00002700E03668002EF4
:1040300015D071897068FFF79BFF0019040C00040C
:10404000000C24187389DB07F0D57B425F41FFB277
:104050002206120C230AFF241C401443E6E7002F1B
:1040600005D02206120C230AFF241C4014436B4681
:104070009888FFF74FFD24182800FFF74BFD201804
:10408000030C0004000C1818030C0004000C181892
:10409000C04380B203B0F0BD70B51C6825042D0C80
:1040A000230C5B19049C246825042D0CED18230CAB
:1040B0005B191C0C1B041B0CE3181C0C1B041B0CB5
:1040C000E318FFF7ABFF70BD10B582B0049C0094FD
:1040D000FFF7E2FF02B010BD10B5FFF749FFC04384
:1040E00080B210BD70B505000026002400E02D68E8
:1040F000002D15D069896868FFF73AFF0019040C94
:104100000004000C24186B89DB07F0D573425E4174
:10411000F6B223061B0C240AFF2004401C43E6E7EA
:10412000002E05D023061B0C240AFF2004401C434C
:10413000E04380B270BD0000014B1B681818704747
:10414000BCCF0020024B1B68C01A80B27047C0462B
:10415000BCCF0020F8B50400FFF7F4FF0500278866
:104160003800FFF7E9FF060064882000FFF7E4FF4E
:10417000FA231B019F420FD89C420FD8AC4202D0B9
:104180000388AB420CD1094B1B68B3420AD0738839
:10419000AB4209D1012000E00020F8BD0020FCE77F
:1041A0000020FAE70120F8E70020F6E7C0CF002062
:1041B00070B504002C4B1B68834242D82B4B1D6802
:1041C000854241D90379002B41D10088FA231B0194
:1041D00098423FD8FFF7B0FF844216D00379002BF6
:1041E00013D1854211D0224B1B68834235D00388FE
:1041F00023800088FA231B01984206D0FFF79CFF1A
:1042000005002000FFF79EFF68806088FFF794FF9D
:104210000500844214D00379002B11D1144B1B6884
:10422000A3421DD023882B802088FA231B019842AB
:1042300006D0FFF781FF04002800FFF783FF6080AE
:1042400070BD0C480CF0F6FD0B480CF0F3FD0B486C
:104250000CF0F0FD0A480CF0EDFD054B1C60C6E7C4
:10426000034B1860DEE7C046BCCF0020C0CF002063
:1042700090350020ACD50110C4D50110E0D5011057
:10428000FCD5011070B50C4C033403239C430B4B3D
:104290001C60FA252D0125800023638023712800EE
:1042A000FFF74AFF064B1860012303710580458024
:1042B000044B1C6070BDC046C4CF0020BCCF0020A2
:1042C000C0CF00209035002070B5041E23D0830796
:1042D00022D10500083D164B1B68AB421FD80300D6
:1042E0000C33144A1268934219D80300083B1B7917
:1042F000002B17D02800FFF72DFF002815D0083C11
:10430000002323710C4B1B68AB4201D90A4B1D6083
:104310002800FFF74DFF70BD08480CF08BFD0848E2
:104320000CF088FD07480CF085FD07480CF082FD75
:10433000BCCF0020C0CF00209035002028D601102F
:104340004CD6011068D6011090D60110F0B5C646C3
:1043500000B50500CC1CA4B203239C430B2C05D94B
:10436000FA231B019C4202D900253FE00C248C4219
:1043700000D277E03C4B1B68AB423BD83B4B1B6801
:10438000AB4237D92F00083F3800FFF7DBFE0600AD
:104390003F883B1A9BB2083B9BB298469C422CD864
:1043A00024D03800FFF7C8FE0379002B31D1FA235F
:1043B0001B019F4224D00788A419A4B20834A4B2D8
:1043C0002B4B1B6883421ED02000FFF7B5FE002355
:1043D0000371078046802B00083B1C800088FA236D
:1043E0001B01984202D0FFF7A7FE4480280080BC42
:1043F000B846F0BD1F480CF01DFD1F480CF01AFD1B
:104400001E480CF017FD2000FFF796FE184B1860B1
:10441000DAE7230014334345E8D8A419A4B20834DA
:10442000A4B2FA231B019F4219D02000FFF784FE9B
:104430000F4B1B68834201D90D4B18600023037199
:104440002B00083B1A88028046801C800088FA23D3
:104450001B019842CAD0FFF76FFE4480C6E70748A9
:104460000CF0E8FC0025C1E7BCCF0020C0CF002045
:1044700090350020C4D60110DCD60110FCD6011006
:10448000F0B5CE4600B582B0002800D182E0C51C50
:10449000ADB2032295430B2D05D9FA231B019D4292
:1044A00002D9002072E00C25854200D274E03B4B1B
:1044B0001B6899461800FFF745FE070032E03848B0
:1044C0000CF0B8FC01230371A14510D0019BE51845
:1044D0000835344B1B689D421DD8A3071ED1200010
:1044E000083053E04B461888FFF726FE81464B46BE
:1044F0001B79002B03D02B4A12684A45F2D1274A78
:1045000049461160274A12684A45DFD0002BDDD0AA
:1045100025480CF08FFC25480CF08CFC24480CF04E
:1045200089FC27883E000195FA231B015B1B9F42F3
:104530002BD23800FFF700FE04000379002BF0D1E6
:1045400003889E1B083E019B9E42EAD314339E4281
:10455000B8D37E19B6B20836B6B2FA231B019E4212
:10456000ADD03000FFF7E8FD0023037123880380FE
:1045700047802680012323710088FA231B0198427B
:10458000A2D0FFF7D9FD46809EE7002002B080BC94
:10459000B946F0BD0020F9E70020F7E7903500208C
:1045A000FCD60110C0CF002010D701102CD701106D
:1045B0005CD7011010B50400FCF7CEFDE3681C6861
:1045C000002C0AD022681A60A30703D1FCF7C6FDAD
:1045D000200010BD02480CF02DFCFCF7BFFDF7E7F2
:1045E0008CD7011070B505000C008B0709D1FCF7C2
:1045F000B3FDEB681B682360EB681C60FCF7AEFD45
:1046000070BD01480CF016FCB0D70110C368002241
:104610001A608368033303329343002207E0C168C2
:1046200009681960C1680B6081885B180132C18814
:104630009142F4DC7047000010B5002406E0A200AF
:10464000044BD058FFF7E2FF0134A4B2082CF6D98E
:1046500010BDC04600D9011010B5082805D880004B
:10466000044BC058FFF7A6FF10BD03480EF068FBCF
:104670000020F9E700D90110D0D7011010B50828A3
:1046800007D8002904D08000044BC058FFF7AAFFC8
:1046900010BD03480EF054FBFAE7C04600D90110E4
:1046A000F0D701100B688268934206D0002902D02F
:1046B0008360012070470023FAE70020FAE70B68C7
:1046C000C268934206D0002902D0C360012070471F
:1046D0000023FAE70020FAE70C204042704770B54B
:1046E00004000D0001F08EFA2900200005F0CCFA3C
:1046F0002900200000F036FE70BD000010B5002833
:104700000DD03923C25C343B1340052B06D1CB07B7
:1047100004D54368002B01D0130703D410BD034810
:104720000CF088FB011D06F097FEF7E724D9011075
:1047300030B583B005000C001000002908D0002A15
:1047400009D06B680A689A4208D1002003B030BDD6
:104750000B480CF06FFB0A480CF06CFB01920360F5
:1047600001A9FFF7BCFF23686B6001212800FFF758
:10477000C5FFEB69002B01D0280098470120E5E731
:1047800048D9011070470000F0B5C64600B582B0A8
:1047900005000C0017001E00002920D0002F20D09B
:1047A000002E20D0002C02D02368002B1DD101AA9E
:1047B00021002800FFF7BCFF0123984600223900A2
:1047C0002800FFF76FFF002231002800FFF777FF76
:1047D0004346002B0CD002B080BCB846F0BD074C5D
:1047E000DCE7064FDCE7054EDCE700239846E5E70B
:1047F00001AA21002800FFF79BFFECE768FC0110ED
:10480000F0B5C64600B504000E0017009846002813
:1048100032D0079B002B34D0002937D0002F37D05F
:104820004346002B36D000256560A560E560354B1A
:104830006361258600223923E254200028300422B7
:1048400000210EF0A7F8E5612562069B63622E4BFE
:104850001A783C23E254089B236143463A00310016
:104860002000FFF791FF2000079B9847002823D0E6
:10487000002080BCB846F0BD24480EF061FA20004C
:10488000F7E723480EF05CFA0020F2E7214EC5E777
:10489000204FC5E71F4B9846C5E7C33B0022E254B3
:1048A0000EE01D480CF0C6FA1C480CF0C3FA0131AA
:1048B0003C22A154002B15D03C23E35CFF2BECD011
:1048C000174B1D682B000022002BF3D09C42E8D030
:1048D0000132FF2AE8DC3C21585C615C8842E6D06A
:1048E0001B68F1E73C33E35CFE2B07D00133064A3B
:1048F000137025600A4B1C602000BAE7024B0022AF
:104900001A70F6E7D946001030E2002058D901109D
:1049100074D9011068FC011098D90110ACD90110AC
:1049200098CF0020014B18607047C04694CF0020FC
:1049300010B5041E10D03923C35CDA070BD4012252
:10494000134339228354C369002B00D098470321B5
:104950002000FFF7D3FE10BD01480EF0F1F9FAE791
:10496000DCD9011010B5041E0FD03923C35CDA075F
:104970000AD501229343383283541B0709D4E369D3
:10498000002B01D02000984710BD03480EF0D8F945
:10499000FAE706F0B3FCF2E7F8D9011010B5041EEF
:1049A00028D04368002B12D13923E35CDB0713D4F2
:1049B000114B1B68A34213D0104B1B68A34213D0AA
:1049C000002B17D01A68A24212D01300F8E7043067
:1049D0000021FFF784FEE7E72000FFF7C3FFE7E7CA
:1049E0000020FFF79FFFE7E72268044B1A6001E011
:1049F00022681A6010BDC04694CF002098CF0020D6
:104A000010B5041E04D03923C35C5A0704D510BD69
:104A100009480EF095F9FAE704221343392283542A
:104A200006F076F803212000FFF768FE236A002BCA
:104A3000EDD020009847EAE718DA011010B50028F9
:104A40000CD03923C35C5A0707D50422934335326F
:104A50008354036A002B00D0984710BD01480EF024
:104A60006FF9FAE73CDA0110021E0BD0064B18680A
:104A7000002808D03C23C35C0133DBB2934202D050
:104A80000068F5E70020704798CF002030B504ACEF
:104A900025780024046041600281438103AB1B78C8
:104AA0000373457301238373C47330BD02E0C91AD5
:104AB00089B20068002802D043898B42F7D9002AC6
:104AC00000D011807047000010B5FCF745FB034B88
:104AD00001221A70FCF742FB10BDC04632E20020F2
:104AE00070B500281AD080235B02994221D2002998
:104AF00021D08CB203891B199BB2A3421DD30C2574
:104B00004557002D0DDB002A19D04268511A41602B
:104B1000428914194481038100200BE009480CF0FC
:104B200089F94268511A020010328A42EFD90120F5
:104B300000E0012070BD0020FCE70120FAE7012021
:104B4000F8E7C046C0F5011010B5FCF705FB084BAF
:104B500000221A70FCF702FB064B186800E0C068E0
:104B6000002804D0436F002BF9D000F0C9FE10BD1F
:104B700032E20020C8E10020F0B583B007000E004B
:104B80001500412A01D0012A0FD10720FFF764FD4B
:104B9000041E07D000230193009533003200390032
:104BA000FFF774FF200003B0F0BD01480CF042F99C
:104BB00060DA011010B50022FFF792FF10BD00006F
:104BC00010B5002814D080235B02994218D2002926
:104BD00018D08AB2438993420DD34468A4466144F5
:104BE00041609B1A438103899A1A0281002010BDFB
:104BF00005480CF01FF905480EF0A2F80120F6E771
:104C00000120F4E70020F2E7C0F5011074DA01108A
:104C100010B5002902DBFFF763FF10BD4942FFF723
:104C2000CFFFFAE710B50122FFF7F2FF10BD000039
:104C300070B5051E01D000260CE019480CF0FAF8FA
:104C400018480CF0F7F829000820FFF717FD013687
:104C5000F6B22500002D21D0FCF77EFAAC7B002CAB
:104C6000EED0013CE4B2AC73FCF778FA002C15D11D
:104C70002C682A7B0F231340022BE4D0012B05D094
:104C8000002B08D12800FFF71FFBE0E729000720D1
:104C9000FFF7F4FCDBE704480CF0CCF8300070BD03
:104CA000C0F5011094DA0110ACDA0110F0B5D64667
:104CB0004F464646C0B582B005000F00904684B20C
:104CC000C1235B009A4241D011D8012A02D0412A67
:104CD00000D07DE0424639000020FFF74DFF8146BD
:104CE000484602B0E0BCBA46B146A846F0BDA02393
:104CF0009B009A426CD1E31C03218B439BB2FA1CAC
:104D000094B28C431B199BB21800103080B28A43B6
:104D1000934260D3824261D8FFF7B2FB81460028FC
:104D2000DED029001031494403310324A14300237C
:104D30000193434600933B003A00FFF7A7FE4B4622
:104D40005B682342CCD027480CF074F80025002380
:104D5000994626E0FFF7B8FE4B46002B02D04846A6
:104D6000FFF766FFA946BBE7B6B22100103169180C
:104D700003310324A14300230193434600933300EE
:104D80003A002800FFF782FE6B6823421BD14B4696
:104D9000002B1BD053461D60BF1BBFB20024002F49
:104DA0009ED0AA460820FFF757FC051ED2D0E31C70
:104DB000032293439AB20C4B9B1A9BB21E1CBB421C
:104DC000D2D93E1CD0E709480CF034F8A946E3E7F5
:104DD00007480CF02FF80023994681E700239946F5
:104DE0007EE7C04624DB0110EC050000C0DA0110AC
:104DF00050DB011070B5041E12D00089884220D902
:104E00000D006389AB420ED2ED1AADB223890A1AA6
:104E10009B1823812468002CF3D113480CF00AF866
:104E200012480CF007F8227B120701D1AB4209D1DE
:104E3000658125812068002801D0FFF7F9FE002355
:104E4000236070BD6368191B691889B22000FFF7E1
:104E50007DFA002804D08442EAD005480BF0EAFF2E
:104E600004480BF0E7FFC04684DB01106CDB011047
:104E7000B8DB01109CDB01100300002002E00130D0
:104E800080B21B68002BFAD17047000010B5041ED9
:104E900009D0FCF761F9A37B0133A373FCF75EF93A
:104EA000A37B002B00D010BD01480BF0C3FFC04610
:104EB000D4DB011010B5002801D0002908D10C481E
:104EC0000DF03EFF0FE003890C891B1903811000D0
:104ED0000268002AF7D103894289934204D10A89E2
:104EE0009B180381016010BD02480BF0A3FFC04670
:104EF000E8DB011020DC011010B50C00FFF7DAFF31
:104F00002000FFF7C3FF10BDF8B5CE46474680B579
:104F100006000D1E914698460AD00A894A4507D3D5
:104F200000280BD002894B449A4207DB002726E079
:104F30003D480DF005FF1020404270E03B480DF069
:104F4000FFFE102040426AE039480BF073FF3948F9
:104F50000BF070FF4B46002B36D10027424539D06D
:104F6000002D03D06A892B899A4245D0002E03D0A8
:104F7000728933899A4248D04B46002B4ED07389B0
:104F800042469B1A6A89D21B934200D313004C46B7
:104F9000994500D91C00706840446B68D9192200FB
:104FA0000DF0FEFCA0443F194B461C1BA3B29946D2
:104FB00072894245C8D36B89BB42C8D3CED82D680D
:104FC000002DC7D00027C9E71B480DF0B9FE1020FF
:104FD000404224E03668002E02D000239846BFE706
:104FE0004B46002B02D100239846B9E713480DF039
:104FF000A7FE1020404212E02B68002BB6D01048CC
:105000000DF09EFE0620404209E03368002BB3D02D
:105010000B480DF095FE0620404200E00020C0BC89
:10502000B946B046F8BDC04650DC011084DC011022
:10503000B4DC0110CCDC0110E8DC0110F8DC01105C
:1050400008DD011010B5002904D00A890023FFF7FC
:105050005BFF10BD02480DF073FE10204042F8E7E0
:1050600040DD0110F8B5CE46474680B505008846BC
:1050700091461900002805D04346002B0BD000278D
:10508000002625E019480DF05BFE00273800C0BC63
:10509000B946B046F8BD16480DF052FE0027F5E7B8
:1050A0006C89641AA4B2A14500D24C4643469819B3
:1050B0006B689C46614422000DF072FCE719BFB298
:1050C0003619B6B24B461C1BA3B2994600212D6877
:1050D0004B46002BDAD0002DD8D00029E0D06B89C8
:1050E0008B42DDD8C91A89B2F1E7C0465CDD0110F8
:1050F0007CDD011010B5FFF7D9FC10BDF8B5CE4628
:10510000474680B50500884616009146002806D01F
:1051100000290AD0038993420DD300271DE01848C7
:105120000DF00EFE1020404223E016480DF008FE60
:10513000102040421DE014480DF002FE01204042C4
:1051400017E012480BF076FE4346D9192200686832
:105150000DF026FC361B3F192D68002E06D0002DC1
:10516000EFD06C89B442EFD33400EDE74F4504D162
:105170000020C0BCB946B046F8BD05480BF05AFE49
:10518000A0DD0110B8DD0110D4DD0110F4DD011047
:105190000CDE0110F0B583B00F00140019006B464F
:1051A0009A1DFFF7A7FF061E24D002896B46D888F8
:1051B00003199A4221DB7389984212D21A1A944237
:1051C00012DD95B273689C4660442A0039000DF0E8
:1051D000E7FB621B92B27919002A07D1002003B0C5
:1051E000F0BD07480BF026FE2500EBE73068FFF71F
:1051F00085FFF4E701204042F1E701204042EEE75D
:1052000024DE011070B50B00150011891A00FFF79C
:105210004DFD041E04D02900FFF714FF002801D122
:10522000200070BD01480BF005FEC0463CDE0110B9
:1052300010B582B014006B469A1DFFF75BFF002883
:1052400007D042896B4606331B889A4201D94268CF
:10525000D45402B010BD000010B5027A002A07D065
:10526000134B5C683C23E35C0133DBB29A4213D1FD
:10527000002906D0002811D00368002B10D0002090
:105280000BE000280ED00368002B0DD0084A5269AD
:1052900093420BD0080000E0002010BD0120FCE785
:1052A0000120FAE70120F8E70120F6E70120F4E702
:1052B00078350020F0B5D6464F4680B583B005005E
:1052C000244B1968586907F09CFB07006B685E7AED
:1052D000214B1C6800239946019313E063699A46A9
:1052E000002B0DD06B6899461C4B2A002100A06949
:1052F000D04700281AD16B684B4528D10223994624
:105300000194E468002C1CD0237C9E42F8D1390023
:105310002000FFF7A1FF0028F2D0637CDB07DDD57A
:105320000C4B1B6962689A42EAD1D7E7019B002BBC
:1053300005D0E268DA60084B1A68E2601C6001235D
:105340009946484603B0C0BCBA46B146F0BD0448D1
:105350000BF070FD7835002080DF002088350020BC
:1053600050DE011010B5002814D00368002B11D0B6
:1053700000290FD00B68002B0CD0074B1B6800E0F6
:10538000DB68002B06D01A680468A242F8D10A68CC
:105390001A60F5E710BDC04680DF002070470000AE
:1053A00010B5002409E0154B154A1A800DE00134B0
:1053B000A4B28023DB019C421DD2104A1388013322
:1053C0009BB213800F4A9342EDD0002003280FD8E0
:1053D00083000D4A9B581B68002B06D0D98A074AC8
:1053E00012889142E3D0DB68F6E70130C0B2EDE706
:1053F000024B188810BD0020FCE7C046780F002043
:1054000000C0FFFFFFFF000018E5011010B50029E4
:1054100003D106480BF00EFDC068002805D0C36F0D
:105420008B42F9D10023C367F6E710BD9CDE011063
:1054300070B5051E04D0037D012B04D101240DE0BD
:1054400008480BF0F7FC08480BF0F4FCA200074BEF
:10545000D35818682900FFF7D9FF0134032CF5D978
:1054600070BDC046C4DE0110D0DE011018E5011089
:1054700010B50100037D012B03D00320FFF7FEF8D8
:1054800010BD01480BF0D6FCE8DE011070B5041E1B
:1054900009D0037D042B19D0072B1ED0032B05D078
:1054A0000025280070BD12480BF0C4FC03F074FB0B
:1054B000051E01D105232375002D15D06B1CF0D1DD
:1054C000638B0822134363830025EAE703F064FB40
:1054D000051EF1D105232375EEE703F05DFB051EE4
:1054E000EAD109232375E7E7200003F0CDFCD8E7D4
:1054F000C4DE011010B5084B186800E02000002839
:1055000009D0C468438B1A07F8D508229343438314
:10551000FFF7BCFFF2E710BDC8E1002010B5FCF7B3
:10552000BBF98004800C034B9C466044024B1880FE
:1055300010BDC04600C0FFFF780F002010B501006D
:10554000037D012B03D00220FFF798F810BD01481E
:105550000BF070FC04DF011070B506000D1E0ED0BC
:10556000002E0ED0337D002B11D1002A15D0002043
:10557000032816DC830025495B581B6821E0244D75
:10558000EEE724480DF0DCFB1020404217E02248F3
:105590000DF0D6FB0620404211E0FFF701FF021E8E
:1055A00025D0002D03D02B68002B00D03360F28271
:1055B0001A4B1A68F2601E6003F032FF002070BDC3
:1055C000DB68002B11D0DC8A9442F9D1002B11D07A
:1055D0001968002911D0002D12D02C68002C12D08F
:1055E000A142EDD108204042E9E70130C0E70220A6
:1055F0004042E4E708204042E1E708204042DEE77D
:1056000008204042DBE708204042D8E718E50110B7
:1056100068FC011018DF011030DF0110CCE1002020
:1056200070B504001600002829D0037D002B2DD171
:10563000012B4BD00320FFF70FF8051E4AD023693A
:105640000361E38AC38201230375637D4375637A33
:105650004372237A0372E37AC372A37A8372236854
:105660000360E38A002B20D01C4B1B68A34214D09C
:10567000002B18D0D968A14213D00B00F8E71848C6
:105680000DF05EFB250010235B421AE015480DF07B
:1056900057FB0F235B42002513E0DA680F4B1A60BB
:1056A00001E0E268DA600023E3602000FFF746FFD4
:1056B0000D4BAB610D4B1A68EA601D6003F0B0FE44
:1056C0000023002E00D03370280070BD0500092390
:1056D0005B42F6E701235B42F3E7C046CCE10020E2
:1056E00058DF011088DF0110295B0010D4E1002091
:1056F00010B50022FFF794FF10BD0000F8B5002898
:1057000016D0456A068DA919C26A448E231C0E4F15
:10571000BC4200D93B1C9BB2D318CB1A0BD5521BF1
:105720000CD480235B029A420BD242850020F8BD44
:1057300006480BF07FFB4685881AF8E7002343856F
:10574000F4E703480BF076FBD0160000C0DF011031
:10575000E4DF011010B5041E13D0037D012B14D01B
:10576000038D591889B20F4A914201D88B420FD943
:105770000C4B23852000FFF7C1FF0B4B984209D843
:1057800010BD0A480DF0DCFAFAE709480BF052FBAD
:105790000185EFE7638B022213436383200003F04C
:1057A00073FBEDE7A02D0000670B000000E0011087
:1057B00018E0011010B5041E08D04068002801D080
:1057C000FFF736FA21000420FEF758FF10BD10B590
:1057D00003E00468FFF7EEFF20000028F9D110BDB8
:1057E00070B5051E0DD00420FEF736FF041E06D04E
:1057F000142229000DF0D4F86068FFF747FB200061
:1058000070BD01480BF016FB40E00110002800D0ED
:105810000161704710B5002804D0037D012B02D030
:105820008423C15010BD01480BF004FB5CE0011063
:1058300010B5002804D0037D012B02D08023C15075
:1058400010BD01480BF0F6FA84E0011010B50028F5
:1058500004D0037D012B02D09023C15010BD01481C
:105860000BF0E8FAACE00110002802D0037D012B18
:1058700000D070478161FCE710B5002806D0037D99
:10588000012B07D08C23C150427710BD03480DF087
:1058900057FAFAE702480BF0CDFAC046D4E00110FF
:1058A000ECE0011010B5002807D0054B054A106840
:1058B0001A6894466044186010BD03480BF0BAFAA9
:1058C000740F0020D8E100200CE1011010B5002A6F
:1058D0000ED000290BD00B8E002B08D0282B0AD914
:1058E000283B9BB21A1C834200D9021C90B210BD07
:1058F00002480BF09FFA0023F4E7C04628E10110AC
:1059000010B50400406F002803D0FFF760FF0023AC
:10591000636710BD10B5041E22D0037D002B1ED07E
:105920000A2B1CD0012B1AD0806F002803D0FFF760
:105930007FF90023A367636F002B02D02000FFF7DD
:10594000DFFF01235B422386E06EFFF740FF206FFD
:10595000FFF73DFF0023E36623676822A35210BDD3
:1059600001480DF0EDF9FAE750E1011010B50C1EF9
:105970000BD000280CD003688B420CD0002B0FD02A
:10598000DA68A2420AD01300F8E71C480BF052FA7A
:105990001B480BF04FFADB68036001E0E268DA6055
:1059A0000023E3602000FFF7B5FF237D0A2B04D01E
:1059B000012B02D0638BDA070FD4237D012B08D093
:1059C000E36E002B10D1236F002B10D1636F002BDF
:1059D00010D100232375E38210BD02221343638399
:1059E000200003F051FAE8E706480BF023FA0648D6
:1059F0000BF020FA05480BF01DFAC0466CE10110CF
:105A000088E10110A8E10110C0E10110DCE1011002
:105A1000F0B5D6464F464646C0B584B004000D00EA
:105A200000281CD0037D012B1DD00A2B1ED0026D37
:105A30009046426A9146902286580769002B47D1CA
:105A4000C38A9A46002B4DD02E4B1B68834215D03B
:105A5000002B19D0DA68A24214D01300F8E72A48C4
:105A60000DF06EF92EE029480BF0E4F9010028480A
:105A7000FFF77CFF2000FFF761FD23E0DA68214B90
:105A80001A6001E0E268DA600023E3609A460025CC
:105A9000206F002801D0FFF79AFEE06E002801D0A9
:105AA000FFF795FE606F002801D0FFF790FE002DF4
:105AB0001AD12000FFF742FD002E03D00D214942EC
:105AC0003800B04704B0E0BCBA46B146A846F0BDC5
:105AD000C38A9A4601000F48FFF748FF0E4B012288
